:10000000F01F0010210100004121000041210000EB
:1000100000000000000000000000000000000000E0
:10002000000000000000000000000000412100006E
:1000300000000000000000004121000041210000FC
:100040004121000041210000412100004121000028
:100050004121000041210000412100004121000018
:100060004121000041210000412100004121000008
:10007000412100006D190000AD1200004121000077
:100080004121000041210000B5070000412100008E
:100090004121000079130000412100000000000010
:1000A00041210000412100004121000041210000C8
:1000B000412100000000000000000000412100007C
:1000C0005029000000000010300000003000001037
:1000D000F011000070B50F4B0F498B4204D3002084
:1000E0000E498B420BD370BD00221C685D68986876
:1000F0000C339042F1D9165956510432F9E70022D7
:100100001D685C68944201D80833EAE75051043214
:10011000F8E7C046C0000000CC000000D40000009A
:1001200010B5FFF7D7FF02F040F810BDFFFFFFFF4B
:10013000FFFFFFFFFFFFFFFFFFFFFFFFFFFFFFFFCF
:10014000FFFFFFFFFFFFFFFFFFFFFFFFFFFFFFFFBF
:10015000FFFFFFFFFFFFFFFFFFFFFFFFFFFFFFFFAF
:10016000FFFFFFFFFFFFFFFFFFFFFFFFFFFFFFFF9F
:10017000FFFFFFFFFFFFFFFFFFFFFFFFFFFFFFFF8F
:10018000FFFFFFFFFFFFFFFFFFFFFFFFFFFFFFFF7F
:10019000FFFFFFFFFFFFFFFFFFFFFFFFFFFFFFFF6F
:1001A000FFFFFFFFFFFFFFFFFFFFFFFFFFFFFFFF5F
:1001B000FFFFFFFFFFFFFFFFFFFFFFFFFFFFFFFF4F
:1001C000FFFFFFFFFFFFFFFFFFFFFFFFFFFFFFFF3F
:1001D000FFFFFFFFFFFFFFFFFFFFFFFFFFFFFFFF2F
:1001E000FFFFFFFFFFFFFFFFFFFFFFFFFFFFFFFF1F
:1001F000FFFFFFFFFFFFFFFFFFFFFFFFFFFFFFFF0F
:10020000FFFFFFFFFFFFFFFFFFFFFFFFFFFFFFFFFE
:10021000FFFFFFFFFFFFFFFFFFFFFFFFFFFFFFFFEE
:10022000FFFFFFFFFFFFFFFFFFFFFFFFFFFFFFFFDE
:10023000FFFFFFFFFFFFFFFFFFFFFFFFFFFFFFFFCE
:10024000FFFFFFFFFFFFFFFFFFFFFFFFFFFFFFFFBE
:10025000FFFFFFFFFFFFFFFFFFFFFFFFFFFFFFFFAE
:10026000FFFFFFFFFFFFFFFFFFFFFFFFFFFFFFFF9E
:10027000FFFFFFFFFFFFFFFFFFFFFFFFFFFFFFFF8E
:10028000FFFFFFFFFFFFFFFFFFFFFFFFFFFFFFFF7E
:10029000FFFFFFFFFFFFFFFFFFFFFFFFFFFFFFFF6E
:1002A000FFFFFFFFFFFFFFFFFFFFFFFFFFFFFFFF5E
:1002B000FFFFFFFFFFFFFFFFFFFFFFFFFFFFFFFF4E
:1002C000FFFFFFFFFFFFFFFFFFFFFFFFFFFFFFFF3E
:1002D000FFFFFFFFFFFFFFFFFFFFFFFFFFFFFFFF2E
:1002E000FFFFFFFFFFFFFFFFFFFFFFFFFFFFFFFF1E
:1002F000FFFFFFFFFFFFFFFFFFFFFFFFFFFFFFFF0E
:10030000FA21094B09019A68521802219A615A6927
:100310008A435A615A6949188A435A6101225969C4
:100320000A435A617047C046004001401021084B03
:100330009A688018D8615A698A435A615A6949187B
:100340008A435A61082259690A435A617047C04674
:1003500000400140012210B5094C6368200093431E
:10036000636001F044FE002303221900200001F025
:100370004AFE0821034A53698B43536110BDC046AE
:1003800000C000400040014070B50125114C06003E
:1003900063682000AB43636001F029FE0223A6617D
:1003A000626920001343042263616369934300225E
:1003B000636163691100AB43636101F035FE0023A3
:1003C00003221900200001F01EFE63681D436560D2
:1003D00070BDC04600C00040F7B5FA21344B89001B
:1003E0001B78344E9C46344B01911C880B006343B0
:1003F0005B08009300231A00D1B28C452ED86346C7
:100400002E4A5B0080211380012600232C4D2D4CA9
:1004100028004900238001F0E5FDEE60280001F08E
:10042000E6FD8022284B5202DA676B68B3436B60AB
:100430002388264DDB005B59002B04D02388DB008A
:100440005859FFF7A1FF2388DB00ED186868FFF714
:100450006DFF238801339BB22380F7BD1C49505C9C
:10046000002187B2202819D100251848D9000D5045
:1004700000251849DF00505C019960434843134947
:100480000132CF197860581CC000455009180098F7
:1004900002334860B0E701311229E9D08800855B5A
:1004A000BD42F8D1301847880848D9000F50DFE71F
:1004B000F0110010E8280000FA1100109E0400104E
:1004C00000C00040FE00001004E100E0A0040010A5
:1004D00028110010340000100300F0B5A13B87B0D4
:1004E000164E5B0005AD029103920193995B0700E4
:1004F00004232A00124801F0C5FB2B780024BB42DC
:1005000017D1AC786A7824021443A03B019A5B00AF
:10051000915B9B5B5B1A033BA3420DDD002C08D073
:10052000039B9C4205D804312300029A044801F041
:10053000A9FB200007B0F0BD0024FAE70600001078
:1005400000400340F7B50500131D14000200114ED2
:10055000A13D6D00A03A0F005200A95B925B5B18B1
:10056000934215D801AA230A937000231070D37008
:1005700009480433547001F0ABFBA95B0648043111
:1005800023003A0001F0A4FB0121034801F0F0FA36
:10059000F7BDC0460600001000400340054A064B68
:1005A000126800209A4203D1044A054B01301A60B8
:1005B0007047C04604810540FD020000FD020100B5
:1005C00000810540F7B5002210000F4B0F4D1B684E
:1005D00001930F4BD35C002B00D1FEBD01991F2B63
:1005E00000D800210624203B63431B1A0619CB18B0
:1005F000002901D10132ECE7B042FBD01C5C2F187E
:100600003C700130F4E7C046300000108B01001050
:1006100008010010F7B501223E4D00216B6993439C
:10062000A0226B613C4BD205D150884253D03B4B4A
:100630003B4E1F683B49300001F0C8FD0924002FE4
:1006400003DA2D237F42737201340423FA260093C8
:100650000023B60001933100380001F05EFE83B242
:100660009C46002B1BD0012E0CD1019A002A04D1EC
:1006700030232B49621C0B5594B22E232849621C4F
:100680000B5594B23023019A611C9A1A244B10180E
:10069000185562460A2353439BB201938CB2300033
:1006A0000A2101F03AFE009B86B2013B0093002B29
:1006B000D1D1202246201A49631C9BB20A55C85446
:1006C000A31C9BB2CA546B4603341B78A4B21648D1
:1006D0000B5501F06EFDFFF775FF144B144A1860BF
:1006E00000231370134A1370134A1360134B1A78C4
:1006F000002A04D101321A70FFF702FEF7BDFA2278
:10070000AB6812019B18AB6101236A6913436B61EB
:10071000F4E7C04600400140FC3F00000401001027
:1007200010000010302900000801001024110010F2
:100730000101001022110010F4110010020100103C
:1007400010B564240649074A074B0C80002804D0E2
:100750000021118001221A7010BD10801870FBE773
:100760009A04001098040010201100100122044B7C
:100770001A70044B63321A800022034B1A807047B0
:10078000211100109A04001098040010002B09D1C8
:10079000054B9A4200DD1A00044B9A4200DA1A0017
:1007A000034B1A607047C0463B07000045FBFFFF44
:1007B00004010010F7B5012073490B68034200D112
:1007C00086E0A02200238025D20553602D025459D3
:1007D0006E4B1C4054510860FA208C6800012418AC
:1007E0008C61526818006A4C6A4B002A00D19CE068
:1007F0001A78092A03D81A780132D2B21A702278EC
:10080000002A06D11B78092B03D90123624A2370E1
:100810001370A02580240122ED0524022B590340EA
:1008200013432B515D485E4B5E4CE8505E4B5F4876
:100830001B78DBB2002B00D189E0002601950578FA
:100840002368EB185A4D2D68AB4202D3584D2D68E2
:100850005B1B1700574D755DAF403D00564FFB5C6D
:100860000627BF1B3B410027BC46134200D0AC46C5
:100870006746019BAD000136EF50072EDFD1012501
:1008800003784E4AA026D35C2A009A4093000022A7
:10089000F6059A5103785B19DBB20370052B14D16E
:1008A00002704748474E037836780133DBB2037055
:1008B0009E420AD8027023683D48013323600068D5
:1008C000834202D1404B22601D7001223F4B1A70BF
:1008D00002230A681A4227D001223D480B60436870
:1008E0009343436000230232190001F08CFB394C22
:1008F000394D2388DB005B59002B04D02388DB00B3
:100900005859FFF741FD2388DB00ED186868FFF7B1
:100910000DFD238801339BB22380304B22881B8836
:100920009A4201D300232380F7BD1A78002A03D00E
:100930001A78013AD2B21A702278002A00D168E7F8
:100940001B78DBB2002B00D063E7237061E70195D1
:100950001600184D27685D5DAE4035000678B44638
:10096000052677431E4EF6196746F65D0627FF1AE1
:100970003E410027164200D02F00019EAD000133FA
:10098000AF51072BE4D17AE700400140FE0F000091
:10099000F9110010F8110010FC000010FF0F00000A
:1009A000FC3F0000F41100100201001001010010D2
:1009B00024110010240000108B0100100000001012
:1009C000221100100001001097040010FC1100100B
:1009D00000C00040FE000010A00400109E040010A3
:1009E00066280000F0B55E4895B001F04BF801F0C4
:1009F0001BF8002303211A00052000F0F1FC5948E0
:100A000001F0B0F900F0DEFD574801F083F800F086
:100A100065FC00238025554A6D001370544A1370FD
:100A2000544A1360544A1370544A1370544A137052
:100A3000544A1370544A13700021544801F036FB95
:100A40002840041EF8D18022514D012392005149C3
:100A5000280000F0E9FD280000F046FE22002100F9
:100A60004D4801F04DF9220001214B4801F048F9B1
:100A700022000221484801F043F9220003214648A0
:100A800001F03EF922000421434801F039F9220027
:100A90000521414801F034F9220006213E4801F0C9
:100AA0002FF9220007213C4801F02AF922000821F1
:100AB000394801F025F922000921374801F020F9D1
:100AC0000A223548110001F01BF9A0250A220B214A
:100AD000314801F015F98021C022304EED05AC51AE
:100AE00009026B5812011A402D4B2E4F13436B50C5
:100AF00001F09EF9029601285CD1E6231B01AB515F
:100B0000BB68294A9B1880223B627B6993437B61C7
:100B10007B69264A13407B6140237A6913437B61DA
:100B200030BF00F073FD8022214BD202DA67FFF75D
:100B300011FCA0230025029ADB059D50012001F045
:100B400097F901F0A3F90400280001F091F90220BF
:100B500000F0DCFBA006C00F01F05EF9FEE7C04626
:100B600080841E0000800540004003400101001009
:100B700022110010F41100102011001002010010C9
:100B8000FC110010970400109D04001000000640A6
:100B9000201400102012001000400440FC3F000010
:100BA000FF03000000400140A0860100FFFEFFFFA0
:100BB00004E100E0DD4BDE4A1C70DE4BA1201C701E
:100BC000DD4B1C70DD4BDE4C1A6021006E22FFF7FE
:100BD00083FC002800D081E2DA49200001F0F6FA17
:100BE000200001F015FB0022D74BD84D1870D84BD0
:100BF0000DAC1A70A98804232200D64801F042F8EF
:100C00002378A32B35D1A37862781B021A4330D006
:100C1000AC88EB881B1B033B93422ADDCE4E211D83
:100C200089B202233200CB4801F02CF8CB4DA11D34
:100C3000073489B201232A00C648A4B201F022F881
:100C400021002B78C64AC34801F01CF800212B78FC
:100C5000C34AE418D154BF48C24AA1B201F012F805
:100C600032882B78002A04D0002B02D00123B84A06
:100C700013706422802100250124BB4B89001A8057
:100C8000BA4BBB481D8001F0ADF9FC60B84801F0DB
:100C9000AEF98022B74BD2021A607B681C437C609D
:100CA0000095B24B1A88B04B1B889A4200D338E7A4
:100CB000B14BB24D1B78002B49D02B78002B46D17D
:100CC000AF4C1433042206A9A2202370FFF704FCC2
:100CD000002807D004AB1B7A5A1D2270192B01D9AA
:100CE000142323700024A74B01201C70A64B1C70FA
:100CF00000F00CFB22000321A44801F001F82200BF
:100D00000A21A24800F0FCFF22000B219F4800F0BE
:100D1000F7FFA023029ADB059C508022120299580B
:100D20009B4901209950FFF775FC844A994B126842
:100D30009A420CD1864B1B78A34208D00122964BD5
:100D4000032192481A7000F0DBFFFFF745FB2B7878
:100D5000002B1FD1009B002B1CD101247B69029A20
:100D6000A3437B61A0230099DB0599500C228B4B98
:100D70001A606A468A4B12781A706A46894B127852
:100D80001A70894B009A1A6005227D4B1A70FFF782
:100D9000B7FA0094684B1A78002A22D00022674CD8
:100DA0001A70634B22687B4E9A4200D09DE1266008
:100DB0002A78D2B2002A00D1A8E10020FFF72AFC4D
:100DC0002368B34200D092E1614B1B78002B08D01E
:100DD0000122714B03216D481A7000F091FFFFF75B
:100DE000FBFA2B78002B5CD0674B1A78002A58D07E
:100DF00000221A706D4B524E1B686D490193524B85
:100E0000187885B22C00301801F0E0F9019B093404
:100E1000002B04DA5B4201932D2333550134002368
:100E2000FA2504260393AD002900019801F075FA14
:100E300083B29C46002B1BD0012D0CD1039A002AB3
:100E400004D130233E49621C0B5594B22E233C49F9
:100E5000621C0B5594B23023039A611C9A1A384BCA
:100E60001018185562460A2353439BB203938CB261
:100E700028000A2101F051FA013E85B2002ED3D19B
:100E8000202146202E4B621C92B219559854A21C68
:100E9000033492B2A4B299541E55FFF793FB3F4B13
:100EA0001860444B1B78002B12D0FFF777FB00280B
:100EB0000ED000233F4A4049137080223F489200E1
:100EC00000F01AFD002800D04DE13D4A3D4B1A606C
:100ED0002A4B1B78002B00D1E9E0364B1C78E4B29A
:100EE000002C00D0E3E0274D2B78002B00D1DEE072
:100EF000FFF754FB002800D1D9E011482C7001F015
:100F000087F903220190304905A801F046F919221A
:100F10002E490DA801F041F98022284D23002649D1
:100F20002800920000F080FB52E0C046F81100104B
:100F300026260000F9110010FC00001030000010FF
:100F400008010010A22800008A010010060000100D
:100F50009C04001000400340FA110010F011001032
:100F600028110010340000109A040010980400109A
:100F70000040014000E100E02011001002010010DB
:100F800000010010FC110010970400100040044004
:100F9000FF0F0000E62300009D0400102411001044
:100FA0000101001022110010F411001004010010C2
:100FB0003029000021110010201200102014001010
:100FC000FD02000000810540CC280000CF28000071
:100FD00001230AAE3371310005AB28000A9300F0FB
:100FE0003FFB00280BD0019A9949280000F04BFBE9
:100FF0000190002803D0280000F064FB019C01232D
:101000003100337128000DAB336000F032FB002853
:101010004AD0002C48D0522307AC23708D4B8E4A07
:101020001B7801938D4B1B781178019AD21A0523F6
:1010300053435B1A9B009BB20393894B1E68894BF9
:1010400005361A68964201D31B68F61A062130004D
:1010500001F063F906216070300001F05EF96B4623
:101060001B7B019AE370039BA1701B0A237114235D
:10107000534363711B0AA37113007B4A053BE37161
:1010800012687A4B9A4200D0E0E0572309222100EF
:101090002800237200F0F7FA002805D0280000F09D
:1010A00011FB280000F020FB714A724B1A6000F01F
:1010B0005DF9002810D0704B1B78002B05D0002361
:1010C00003211A00052000F08BF96C4A01201388D7
:1010D0000133138000F01AF930BFE2E5200001F07F
:1010E00097F8002800D177E57AE5236060E6644C44
:1010F0002378002B00D174E6FFF72CF9002203219E
:10110000604800F0FDFD002323706AE62368B342C7
:1011100002D1FFF71FF9012203215A4800F0F0FD28
:101120005FE62578032D26D102225749606801F039
:101130009BF8061E1FD10AA9544800F00DFC444C30
:1011400001000A9A200001F0B9F80A9A504BA654FF
:101150001A700432AA43A12092B22100FFF7F2F9DB
:101160000120FFF757FA0DAC2100484800F044FB7E
:101170000028D6D1A9E62378042BF4D16068182280
:10118000444901F071F8041EEDD10AA93F4800F06E
:10119000E3FB0378532B38D13F4B85781C704378A1
:1011A0002D021D433D4BC278411C1D80031D3C4850
:1011B000027020003B4CC6B2B2421ED898180023E1
:1011C000394EA354DCB2A2421BD8002D04D0002A11
:1011D00002D00122304B1A700A9BA3209A1C0323D1
:1011E0009A4392B2FFF7AEF9254B1B78002BBAD089
:1011F000FFF7B0F8FFF7F0F8B5E71E5C26540130B2
:10120000D9E7C45C9C550133DCE7512BABD10122FB
:101210007B6993437B6142780E4B511D1970192AEB
:1012200001D914221A70FA22BB6812019B180122FC
:10123000BB617B69411C13437B610A9BA220DA1CC2
:1012400003239A4392B2FFF77DF98CE755231DE7FC
:10125000080100100001001001010010221100100F
:10126000F411001024110010300000102626000098
:10127000FD020000008105400201001098040010EA
:101280009D04001000400440CC28000020140010F1
:101290008A010010CF2800009C040010FA110010F1
:1012A000F0110010281100103400001070B509482A
:1012B00000F03AFE012405000100064800F042FE5D
:1012C000254205D02100034800F004FE024B1C70AB
:1012D00070BDC04600400540FD11001010B5084C1F
:1012E000200000F0E3FD0121200000F00FFE0022AD
:1012F000044B1A708022044BD2011A6010BDC04604
:1013000000400540FD11001000E100E010B5002193
:101310000400134800F0D0FD0022124B1A709442D2
:1013200005D10F4800F0E4FD041E00D12A3403214A
:101330000B4800F0C1FD2100094800F0CBFD8020E2
:10134000400100F039FE8020400100F03FFE802285
:10135000054BD2011A600121014800F0D7FD10BDF4
:1013600000400540FD11001000E100E0014B18783D
:10137000C0B27047FD11001070B5144800F0AFFE08
:101380007F22C417124D14402418E4112B78041B3B
:101390008934032B04D120000A2100F0A3FE0400AD
:1013A00080220C4B9203DA67084800F063FE07487E
:1013B00000F073FE2978084B2200C9B21B68FFF7C2
:1013C000E5F90022054B1A7070BDC04600000640CA
:1013D0000412001004E100E00012001005120010D9
:1013E000F7B5264C0193237800900D0017000126D5
:1013F000002B40D12248267000F024FE009920489E
:1014000000F043FE002F0CD11E4B019A1D701E4BA5
:1014100031001B481A6000F08FFE80221B4B9203A4
:101420001A600026164800F03CFEB74221D0802604
:10143000B6000021124800F039FE3042F9D01048C1
:1014400000F04DFE7F23C6171E403618F611861B8E
:101450008936032D04D130000A2100F043FE060036
:1014600080220B4B9203DA67054800F003FE00234D
:1014700023703000FEBD7642FBE7C0460512001027
:1014800000000640041200100012001000E100E00D
:1014900004E100E010B5104B1049CA1A8B420AD083
:1014A0001C78032C05D10E498B4205D10021080080
:1014B00010BD0133F1E7002259780160FF2901D006
:1014C000991CF4E7032AF1DD9A78191D12020260D3
:1014D000DB781A430260EAE7088105400083054093
:1014E000FF820540F0B5002685B002930AAB20CB01
:1014F00003920A791B7804000F000192B34203D0D3
:10150000086800F085FE060073190125019A002085
:1015100055400322554362685B199B188022920054
:1015200093422EDCA26893422BDC6A46217D12791D
:1015300063606275CA019446019A029912010A43D6
:10154000614623680A430299E06023611A70DA1C3D
:10155000012918D16946097A5970711C9970039B49
:101560005519032B12D151332B70153B33406B703F
:10157000023532003968280000F00FFE0120AE1954
:10158000266005B0F0BD5E709870E8E7039B062BFF
:10159000EFD14F332B703B7AE9E7FFFF10B5074CD3
:1015A000200000F0C7FB882301002000994300F0D1
:1015B000BDFB0122024B52421A6010BD0080054063
:1015C00008120010012210B50C4C0D4B52422000A5
:1015D00002211A6000F0D8FB2000002100F0A6FBD9
:1015E000A1212000490000F0A1FB8022054B9201BF
:1015F0001A600549200000F0A5FB10BD00800540E1
:101600000812001000E100E0FF01000010B5002109
:10161000034800F08BFB8022024B9201DA6710BD79
:101620000080054004E100E070B50D001E000023BD
:1016300082600361C360067604000C22074928001B
:1016400000F0ABFD0C23002E00D0023BED185A1C1D
:10165000012325606260237570BDC04644290000E7
:1016600007B50123052201930092023AFFF73AFFE2
:101670000EBD012307B50193023300930422013B01
:10168000FFF730FF0EBD436870B5D31815008022F8
:10169000040092000020934213DCA268934210DC05
:1016A000E268667DAA18864201D0FF2A09DC6360E1
:1016B000E26020682A0000F070FD012023685D19B7
:1016C000256070BD0369C1689A785218417D002970
:1016D00003D09A700023037570479970D970111266
:1016E00019715A71F6E7FFFFF8B54468037E0500EB
:1016F0002600002B39D00B3E032E39DC2B685A1CF8
:101700002A60FE221A702B681F1B03231C4201D083
:101710009C430434314B2F601A686C60013211D045
:101720001A68A2420ED203221B682D489343FA582E
:101730002C4B1A6000F0FEFA8821014389B2284838
:1017400000F0F4FA22003900274800F026FD3302A9
:10175000264AFE2E38DDFF2109040B403106244EB7
:101760000E4301201E431660F8BD0D3E032E2FDDF3
:1017700040232A6911780B43137009232A681B1B25
:10178000D3182A7E002A12D0FE2EB7DD8021002237
:101790000234890010008C42E6DC2A76991C181D60
:1017A000320000F0FEFC2B6802332B60A6E7FE2E11
:1017B000A4DC0122191D2A76981C320000F0F1FCED
:1017C0002B68023C023BF0E70A4E11680E40C8E766
:1017D000092302681B1BD318EBE7C0460812001050
:1017E000008005400C120010008105400881054072
:1017F00003FF0000FF00FFFF0023F7B542684B60C6
:101800008B600400C3609A4201D1002048E00825A3
:1018100010270068206103781D401F409C469B06EE
:10182000DB0F0B733B005E1EB3419E009B1B2E0023
:10183000009575426E4107339B1B9A42E5DBD31A34
:10184000019346788278C31C002F09D11706C2780D
:10185000831D12043A43477900793A430002024358
:1018600000270098B84201D01F7801339019019DDC
:10187000C0198542C9DB281A60606546072005400B
:101880002800042DC1D800F0A6FD030C2BC03500A4
:1018900032433A43B9D10A7001209B182360E260B9
:1018A000FEBD012EB1D1009D581C1B78002D00D02B
:1018B000C019013A542B0DD1513B0B700378451CD4
:1018C00058B20028A1DB3F2003408B60D21A4D6044
:1018D000EB18E1E7552B98D14F3B0B70431CDBE72E
:1018E00004204B6008708E6000999B190029D3D0AA
:1018F000DB19D1E70520F4E7F0B587B0040001A8B3
:101900000D001600FFF7C6FD011E21D0019A114BF4
:10191000871800209F421BD8B24219DCA6602560C0
:1019200062600130002A11D0280000F036FC6668A1
:1019300025686368002B01DC012005E002A9200076
:10194000FFF75AFF0028F4D1666025600023E360AA
:1019500007B0F0BDFF820540C3680B60002B03D0C9
:101960000368C068181A70471800FCE737B5284D9F
:10197000280000F0E3F92C6A010028004025A4B2F9
:1019800000F0E0F9254025D1E405E40D23070AD550
:10199000204B1A68013206D01F4A1B6811680322C7
:1019A00093431E4A9950C1235B001C4201D0FFF7AC
:1019B000F5FD0220802320405B00002821D001207B
:1019C0001C4204D0124800F0AEF9C006C00FFEF76A
:1019D000B7FE18E0FFF7E2FDF823FF331C40104B81
:1019E00000251B88032BD1D001A8FFF753FDA84287
:1019F000CCD0019B0B4A01359B18C018054B1860D1
:101A0000C4E71C42E3D1002D01D0FEF7AFFE37BD85
:101A100000800540081200100C12001000810540E3
:101A200008810540007FFABF10B5044800F05BF95B
:101A3000A020C00500F052F910BDC046004004408F
:101A400010B5802800DD8020002340100CD10E242A
:101A5000064A5B005062116A2340A1430B431362A4
:101A600001235062536210BD0133EEE70080044051
:101A70000120034B1B6A1B075B0F98407047C04651
:101A80000080044010B50100024800F043FCFFF75D
:101A9000D7FF10BD00127A0010B5FFF7E9FF010073
:101AA000014800F037FC10BD00127A0010B5002884
:101AB00001D0FFF7F1FF10BD034B0449DA6F084076
:101AC0001043D8677047C04604800440FCBF1D0027
:101AD000034A0449D36F08408343D3677047C04625
:101AE00004800440FCBF1D0070B5FE2500240126C3
:101AF00007492D010B78002B03D1002C00D00B706F
:101B000070BD1C003300425992089343F3E7C0466E
:101B100010120010002210B50400C020104B40032A
:101B20001A70104B013A1A60FFF7C6FF042000F04C
:101B300017FA082000F028FA6420FFF7B7FF042006
:101B400000F018FAFFF7A8FF074B0849C01800F08B
:101B5000E1FB0138002800DC0120606110BDC046B7
:101B6000101200102C000010D7B80500D8B80500DE
:101B70000A4B10B51A6801320AD00424084A84506E
:101B800006220260074A033C1470012252421A6086
:101B9000002901D0FFF7A8FF10BDC0462C0000109F
:101BA000E80F000010120010F0B587B01F000CAB5A
:101BB0001B78CC0F0593C023641864109B05640048
:101BC000E41801250B002B4004936B461B7C039209
:101BD000019302900E00FFF787FF284B1A68531CF1
:101BE0000FD03F21F3170B409E19B611B24204D11A
:101BF000049B002B01D13D4012D001210298FFF738
:101C0000B7FFFF26039D002F0CDC3F221C4BE4187E
:101C1000E31713401C19194BA4111C6007B0F0BD49
:101C20000195EEE7019A2B78002A05D022881B0245
:101C300032401343238007E0012F1CD06A78013F14
:101C40001202134323800135059B013F0234013505
:101C5000002B00D0039D3F231C4209D1002F07D049
:101C60000222064B5242012102981A60FFF780FFC0
:101C700000230193C7E72288B243DAE72C00001063
:101C8000FEFFFFCFF8B50C00060017001D00FFF7A0
:101C90002BFF3F200D4BE11701401A6809198911EC
:101CA00091420BDC61190139CB1703405B189B1182
:101CB000934203DB01213000FFF75AFFC0239B054D
:101CC0002A003800E11800F068FAF8BD2C00001076
:101CD00013B500240094FFF767FF13BD10B5402033
:101CE000FFF7EAFE10BD802010B5C002FFF7E4FE4A
:101CF00010BD0430C36F090109098B43C3677047E6
:101D000070B506000D0014000B2907D9012A05D172
:101D10000B0011000C3B9940FFF7EBFF2402AD00D4
:101D2000240AAC5170BD4068C0B27047C905C90DE6
:101D3000816170478069C005C00D7047C069C005EA
:101D4000C00D704730B50825054AC36914682B409B
:101D5000C905C90D234313604162416230BDC046CD
:101D600014120010030070B5FE2200250400044880
:101D7000FC335A6003498561FFF7E4FF256070BDBD
:101D800000800540FF010000043101617047FFFF42
:101D9000F7B50F4D0F4E104C07000191320029008E
:101DA000200000F0E6F90D4B3200184090231B0193
:101DB0003B4303432900200000F0CCF90421084AEA
:101DC00013698B4301990B43136130BFF7BDC046C4
:101DD00018120010008003402080034000F6FFFF2F
:101DE00000ED00E0F7B50A4D0A4C06000F00019225
:101DF00029000200200000F0BCF90300019ABB4357
:101E0000134329003200200000F0A4F9F7BDC046BA
:101E1000181200102080034010B50223002800D1C2
:101E2000024B04211800FFF7B3FF10BD0220000091
:101E300010B50B4C0B4A21000B4800F09AF9902387
:101E400080221B0103401201FF20934206D1074A62
:101E50002100054800F08DF9C006800F10BDC04676
:101E600018120010008003402080034018800340B7
:101E700002008021501E824110B5D203090202489F
:101E8000FFF7B0FF10BDC0460080034010B5044A04
:101E90000449054800F06DF9A023184010BDC04664
:101EA000188003401812001020800340802010B5D5
:101EB000C000FFF701FE10BD072310B502000B4064
:101EC0000248034900F046F910BDC04624400540D1
:101ED0001C120010020010B50B021B0A0C32024942
:101EE000024800F037F910BD1C12001024400540D4
:101EF000020010B50C320349034800F03AF9000221
:101F0000000A10BD1C1200102440054002000123ED
:101F100010B50B4014320249024800F01BF910BD05
:101F20001C12001024400540020010B5183203496D
:101F3000034800F01EF90123184010BD1C120010C8
:101F4000244005400200012310B50B402032024915
:101F5000024800F0FFF810BD1C120010244005409C
:101F60000F21034A08405368834353607047C046BB
:101F7000008004400F21034B08405A68104358600A
:101F80007047C046008004408E2210B53F240349AC
:101F900092008B58204083438B5010BD008004403A
:101FA0008E2310B53F24034A9B00D158204008439C
:101FB000D05010BD008004408123034AC004C00CEF
:101FC0009B00D0507047C046008004408223044AE2
:101FD000C0049B00C00CD050D1588143D1507047F1
:101FE0000080044010B50800FFF766FD10BD002218
:101FF0004368426001328260013242608268002A96
:10200000FCD143607047F0B5012403279D1C6D008F
:10201000AF409C40AA409940C66B3C43A643114345
:102020003143C663C163F0BD012A05D111408A4026
:10203000436F1A4342677047012319408B40426F38
:102040009A43F7E710B504000220FFF79DFF8020B8
:102050004001FFF731FD00232360636207332363F0
:102060000833E36080231B02E361014B236210BD50
:10207000FF7F0000002310B5436280204001FFF77E
:1020800027FD0220FFF78CFF10BD0E22C368490018
:10209000114093431943C1607047C0680007400F67
:1020A000704701230268134303607047802310B513
:1020B000802402685B0012021A40836AA4005B025B
:1020C00023401A43E23C8368FF3C2340134300292A
:1020D00003D082681206520F0A7098B210BD406891
:1020E00000B2704770B505008020C0000C0000F001
:1020F00011F92D236B4363434343002B11DD083358
:102100001A000C4B12115C434443131B3222002B68
:102110000EDD64214243D3184143180000F0FAF861
:1021200070BD083B0F211A00DB170B409A18E8E737
:102130005242EEE78FB30000072319404162704717
:10214000FEE7A42301220168114202D1013B002BCA
:10215000F9D17047F8B50D0016001F000400FFF715
:10216000F0FF2B68200001332B603760FFF7E9FF99
:10217000F8BDF8B506000C0015000B6801330B60C4
:102180003000FFF7DEFF300027682B68FFF7D9FF2C
:10219000286823689F42F3D1F8BD10B500F0F7F826
:1021A00010BD10B500F009F910BD10B5FEF71AFC0E
:1021B00010BD020010B51378002B05D1CC5CD454AF
:1021C0000133002CFAD110BD0132F4E703000B43B8
:1021D00030B59B0711D103000B4D0A680B4C141945
:1021E00094432C4206D0D1B21970013300290AD091
:1021F0001212F8E704C30431EFE70023CA5CC254AB
:102200000133002AFAD130BD80808080FFFEFEFEBF
:10221000032110B5421C084218D1114C0368114922
:1022200059189943214219D0DCB2411C002C0BD023
:10223000FF242402811C234206D0FF2109040B4005
:10224000591E8B41C318D91C881A04E0431C00781E
:10225000002801D1981A10BD1800DCE70430DDE732
:1022600080808080FFFEFEFE03000B4330B59B079D
:102270000BD1104D032A08D904680B689C4204D185
:102280000D4BE318A3432B4204D00024A24205D1F6
:10229000002008E004300431043AEBE7035D0D5DF3
:1022A000AB4201D0581B30BD0134002BEED11800D9
:1022B000F9E7C04680808080FFFEFEFE03000B43EE
:1022C00070B504009B0708D1104E032A05D90D688C
:1022D0000F4BEB18AB4333420DD0013A531C09D0DE
:1022E0000D78631C25700131541E002D0AD19A18F7
:1022F000934204D170BD20C40431043AE5E71D7057
:102300000133F5E722001C00E8E7C04680808080AA
:10231000FFFEFEFE03000B4321D4002931D0012231
:10232000D207030901E0090112099942FBD94308C8
:1023300001E0490052089942FBD900E04908401ADF
:1023400007D35241FAD30146104670474908401856
:10235000F7D29218FAD34018014610467047CB0FB7
:1023600000D04942021000D54042534008B5FFF763
:10237000D4FF0CBC521000D34042002A00D5494281
:102380001847F446002000F001F860477047844683
:10239000830708D18B0706D1131F04D304C904C0D7
:1023A000043BFBD21A1D524205D0891A801A8B5C5D
:1023B00083540132FBD160467047884207D98B189D
:1023C000834204D9013A8B5C8354FBD1704700B53A
:1023D000FFF7DDFF00BD8C46714601390956490003
:1023E0008E446146704700000000000000002E008F
:1023F0000000000600060000143E143E14002C2AC3
:102400003E2A1A0022100804220018242A3630001E
:1024100000000402000000001C2200000000221C3A
:102420000000002A1C1C2A0008083E0808000000C2
:102430002010000008080808080000002000000024
:102440002010080402001C322A261C0000243E2012
:1024500000003A2A2A2A2E0022222A2A3E00101898
:10246000143E10002E2A2A2A12003E2A2A2A3A0056
:102470000202320A06003E2A2A2A3E002E2A2A2A70
:102480003E000000001400000000201400000008BE
:102490001422000000141414140000221408000078
:1024A0000004022A04003E22222A2E0038141214AC
:1024B00038003E2A2A2A14001C22222214003E221E
:1024C00022221C003E2A2A2222003E0A0A02020080
:1024D0001C22222A18003E0808083E0000223E2244
:1024E00000001222221E02003E080C1422003E2090
:1024F000202020003E0408043E003E0408103E0058
:102500001C2222221C003E0A0A0A04001C222A1253
:102510002C003E0A0A1A2C00242A2A2A120002023F
:102520003E0202001E2020201E00020C300C020081
:102530003E1008103E002214081422000204380441
:10254000020022322A262200003E2222000002043B
:1025500008102000000022223E00080402040800A7
:102560002020202020000000020400003814121453
:1025700038003E2A2A2A14001C22222214003E225D
:1025800022221C003E2A2A2222003E0A0A020200BF
:102590001C22222A18003E0808083E0000223E2283
:1025A00000001222221E02003E080C1422003E20CF
:1025B000202020003E0408043E003E0408103E0097
:1025C0001C2222221C003E0A0A0A04001C222A1293
:1025D0002C003E0A0A1A2C00242A2A2A120002027F
:1025E0003E0202001E2020201E00020C300C0200C1
:1025F0003E1008103E002214081422000204380481
:10260000020022322A262200000000000000000002
:1026100000000000000000000000000000000000BA
:1026200000000000000000000000000000005F004B
:102630000000000700070000147F147F1400242A04
:102640007F2A120023130864620036495522500085
:10265000000503000000001C224100000041221C74
:102660000000082A1C2A080008083E08080000503C
:102670003000000008080808080000606000000042
:102680002010080402003E5149453E0000427F40B0
:1026900000004261514946002141454B3100181468
:1026A000127F10002745454539003C4A4949300012
:1026B000017109050300364949493600064949298F
:1026C0001E000036360000000056360000000008EC
:1026D00014224100141414141400412214080000A0
:1026E000020151090600324979413E007E11111163
:1026F0007E007F49494936003E41414122007F41E9
:1027000041221C007F49494941007F09090101001C
:102710003E41415132007F0808087F0000417F415F
:1027200000002040413F01007F08142241007F400B
:10273000404040007F0204027F007F0408107F00B9
:102740003E4141413E007F09090906003E415121B9
:102750005E007F09192946004649494931000101B7
:102760007F0101003F4040403F001F2040201F00EC
:102770007F2018207F00631408146300030478048A
:10278000030061514945430000007F4141000204BC
:102790000810200041417F000000040201020400F3
:1027A00040404040400000010204000020545454C6
:1027B00078007F484444380038444444200038447A
:1027C00044487F00385454541800087E0901020020
:1027D000081454543C007F080404780000447D40F1
:1027E00000002040443D0000007F102844000041CC
:1027F0007F4000007C04180478007C080404780002
:102800003844444438007C14141408000814141884
:102810007C007C0804040800485454542000043F01
:10282000444020003C4040207C001C2040201C00F4
:102830003C4030403C004428102844000C5050508C
:102840003C004464544C4400000836410000000041
:102850007F00000000413608000010040810080046
:10286000081C2A0808000000010000000002000007
:10287000000004000000000800000000100000003C
:1028800000200000000040000000002000000000C8
:10289000100000000008000000000400000000021A
:1028A0000000546865204C5043204578706572697B
:1028B000656E63653B20596F757220576F726C644B
:1028C000205265696D6167696E656400656E0061BF
:1028D00070706C69636174696F6E2F6F6374657477
:1028E0002D73747265616D0063007B076400A4063C
:1028F0006500EF0566009805730048056700FB0456
:1029000061007004760031046200F6034300BC03EA
:10291000440054034500F602460051024700D4012A
:1029200041005A014200E00078008F027900CB029A
:102930002054656D702069732030302E3020462081
:1029400000FFFFFFFD020000FD0200000300000089
:102950000B0A040506FF00008000C000C004000F41
:102960002054656D702069732030302E3020462051
:102970000000000002070809010003FFFFFFFFFF3E
:0400000300000121D7
:00000001FF
