:1000000000200010C5010000ED3F0000ED3F0000A2
:1000100000000000000000000000000000000000E0
:10002000000000000000000000000000ED3F0000A4
:100030000000000000000000ED3F0000ED3F000068
:10004000ED3F0000ED3F0000ED3F0000ED3F000000
:10005000ED3F0000ED3F0000ED3F0000ED3F0000F0
:10006000ED3F0000ED3F0000ED3F0000ED3F0000E0
:10007000ED3F0000812E0000651F0000ED3F0000F5
:10008000ED3F0000ED3F000061140000ED3F000077
:10009000ED3F0000D1200000ED3F00000000000017
:1000A000ED3F0000ED3F0000ED3F0000ED3F0000A0
:1000B000ED3F00000000000000000000ED3F0000E8
:1000C000A04D0000000000103400000034000010BB
:1000D000D813000080B588B000AFF860B9607A60CE
:1000E000BB68FB61FB68BB6100237B610AE0FB69C5
:1000F0001A1DFA61BA69111DB96112681A607B692B
:1001000004337B617A697B689A42F0D3C046BD466E
:1001100008B080BD80B584B000AF786039607B687E
:10012000FB600023BB6007E0FB681A1DFA60002239
:100130001A60BB680433BB60BA683B689A42F3D369
:10014000C046BD4604B080BD80B584B000AF1A4B38
:10015000FB6014E0FB681A1DFA601B68BB60FB685B
:100160001A1DFA601B687B60FB681A1DFA601B6829
:100170003B603A687968BB681800FFF7ABFFFA6824
:100180000E4B9A42E6D30FE0FB681A1DFA601B681B
:100190007B60FB681A1DFA601B683B603A687B68ED
:1001A00011001800FFF7B6FFFA68054B9A42EBD32F
:1001B000C046BD4604B080BDC0000000CC000000B9
:1001C000D400000080B500AFFFF7BEFF03F074FF5E
:1001D000C046BD4680BDC046FFFFFFFFFFFFFFFFDB
:1001E000FFFFFFFFFFFFFFFFFFFFFFFFFFFFFFFF1F
:1001F000FFFFFFFFFFFFFFFFFFFFFFFFFFFFFFFF0F
:10020000FFFFFFFFFFFFFFFFFFFFFFFFFFFFFFFFFE
:10021000FFFFFFFFFFFFFFFFFFFFFFFFFFFFFFFFEE
:10022000FFFFFFFFFFFFFFFFFFFFFFFFFFFFFFFFDE
:10023000FFFFFFFFFFFFFFFFFFFFFFFFFFFFFFFFCE
:10024000FFFFFFFFFFFFFFFFFFFFFFFFFFFFFFFFBE
:10025000FFFFFFFFFFFFFFFFFFFFFFFFFFFFFFFFAE
:10026000FFFFFFFFFFFFFFFFFFFFFFFFFFFFFFFF9E
:10027000FFFFFFFFFFFFFFFFFFFFFFFFFFFFFFFF8E
:10028000FFFFFFFFFFFFFFFFFFFFFFFFFFFFFFFF7E
:10029000FFFFFFFFFFFFFFFFFFFFFFFFFFFFFFFF6E
:1002A000FFFFFFFFFFFFFFFFFFFFFFFFFFFFFFFF5E
:1002B000FFFFFFFFFFFFFFFFFFFFFFFFFFFFFFFF4E
:1002C000FFFFFFFFFFFFFFFFFFFFFFFFFFFFFFFF3E
:1002D000FFFFFFFFFFFFFFFFFFFFFFFFFFFFFFFF2E
:1002E000FFFFFFFFFFFFFFFFFFFFFFFFFFFFFFFF1E
:1002F000FFFFFFFFFFFFFFFFFFFFFFFFFFFFFFFF0E
:1003000080B582B000AF0200FB1D1A70064BFA1DCB
:10031000127811001F220A40012191400A001A6040
:10032000C046BD4602B080BD00E100E080B582B0AD
:1003300000AF0200FB1D1A70074AFB1D1B78190055
:100340001F230B40012199400B0019008023D1503D
:10035000C046BD4602B080BD00E100E080B582B07D
:1003600000AF78600A00FB1C1A707B681B68FA1CDF
:10037000127852B2012191400A0013400F2213401B
:100380005A1E9341DBB21800BD4602B080BDC04684
:1003900080B582B000AF78600A00FB1C1A70FB1CAD
:1003A0001B785BB201229A407B681A60C046BD464A
:1003B00002B080BD80B582B000AF78607B685B68BA
:1003C00001221A437B685A60C046BD4602B080BD18
:1003D00080B582B000AF78607B685B680122934390
:1003E0001A007B685A60C046BD4602B080BDC04658
:1003F00080B582B000AF78607B689B681800BD460E
:1004000002B080BD80B582B000AF786039607B6893
:100410003A68DA60C046BD4602B080BD80B584B09F
:1004200000AFF8607A600B23FB180A1C1A700B23CC
:10043000FB1800229A56FB68063292007968D15068
:10044000C046BD4604B080BD80B582B000AF7860C4
:100450000A00FB1C1A707B685969FB1C00229A5623
:1004600013005B009B1801229A4013000A001A43F4
:100470007B685A61C046BD4602B080BD80B582B07F
:1004800000AF78600A00FB1C1A707B685969FB1C7E
:1004900000229A5613005B009B1801229A40130019
:1004A000DB430B401A007B685A61C046BD4602B070
:1004B00080BDC04680B582B000AF78600A00FB1CEA
:1004C0001A707B685969FB1C00229A5613005B0066
:1004D0009B18013301229A4013000A001A437B68DB
:1004E0005A61C046BD4602B080BDC04680B582B0EC
:1004F00000AF78600A00FB1C1A707B685969FB1C0E
:1005000000229A5613005B009B18013301229A4087
:100510001300DB430B401A007B685A61C046BD469E
:1005200002B080BD80B582B000AF78600A00FB1CCD
:100530001A707B685969FB1C00229A5613005B00F5
:100540009B18023301229A401300DB430B401A0030
:100550007B685A61C046BD4602B080BD80B582B09E
:1005600000AF0200FB1D1A70FB1D1B78002B09D089
:100570000B4B64221A800B4B00221A800A4B01227B
:100580001A7008E0064B64221A80064B00221A807B
:10059000054B00221A70C046BD4602B080BDC04661
:1005A00004120010061200103500001080B500AFD4
:1005B000054B01221A70054B64221A80044B00225D
:1005C0001A80C046BD4680BD3400001004120010E1
:1005D0000612001080B584B000AFBA607B600F23B4
:1005E000FB18021C1A700E23FB180A1C1A700E232B
:1005F000FB181B78032B00D000BEBB680A4A93424D
:1006000001DA0A4BBB60BB68094A934201DD094B22
:10061000BB607B68002B02D1074BBA681A60C046EA
:10062000BD4604B080BDC04646FBFFFF45FBFFFF53
:100630003A0700003B070000C000001080B500AF83
:10064000524B180002F032FD02F0D0FC00230022D1
:100650000321052001F09AFD4D4B180002F0D8FF50
:1006600001F040FE4B4B180002F08EFE01F0A0FCA2
:10067000494B00221A70494B00221A70484B002245
:100680001A60484B00221A70474B00221A70474BE1
:1006900000221A70464B00221A70464B00221A7034
:1006A000C046454B0021180003F070FB03001A0000
:1006B00080235B001340F4D180239A003F494048D7
:1006C000012301F049FE3E4B180001F05FFF3D4B56
:1006D00000220021180002F05BFF3A4B00220121AA
:1006E000180002F055FF374B00220221180002F0DB
:1006F0004FFF344B00220321180002F049FF314B19
:1007000000220421180002F043FF2E4B0022052195
:10071000180002F03DFF2B4B00220621180002F0CA
:1007200037FF284B00220721180002F031FF254B2C
:1007300000220821180002F02BFF224B0022092181
:10074000180002F025FF1F4B0A220A21180002F0B0
:100750001FFF1C4B0A220B21180002F019FFA023D7
:10076000DB05194A00219950A023DA05A023D905F9
:1007700080231B02C958C0231B010B401349194396
:1007800080231B02D150C046BD4680BD80841E0020
:100790000080054000400340D4030010D503001042
:1007A000D80300103500001036000010370000108C
:1007B000C400001038000010000006400C140010A7
:1007C0000C16001000400440FC3F0000FF03000036
:1007D00080B582B000AF01F0AFFD1220FFF7A6FD9B
:1007E00000F0CAF9A023DB050D4A00219950012031
:1007F00003F058F803F06CF803001A0020231A40A5
:10080000FB1D511E8A411A70002003F04BF8022094
:1008100001F0E6FBFB1D1B78180002F0E7FFFEE786
:10082000FC3F000080B586B000AF786039600023DF
:100830003B613CE000237B617B681B781F2B06D962
:100840000E23FB1820221A701F4B1B687B610F239D
:10085000FB1800221A701FE03B695A1C3A613A6883
:10086000D2187B681B7819000E23FB181B78CB1A53
:1008700019000B005B005B185B0019007B695918BD
:100880000F23FB181B78CB5C13700F23FB181A780F
:100890000F23FB1801321A707B69002B04D00F2341
:1008A000FB181B78052BD7D97B6801337B607B68ED
:1008B000002B03D07B681B78002BBBD13B69180051
:1008C000BD4606B080BDC046E803001080B500AF4D
:1008D0000F4B1800FFF78CFD0300FA22120194461B
:1008E00063440B481A000021FFF798FD084B0021D4
:1008F0001800FFF7FBFD064B00211800FFF712FE62
:10090000034B00211800FFF79FFDC046BD4680BD88
:100910000040014080B582B000AF7860184B1800ED
:10092000FFF756FD164B180003F036F97B681448A4
:100930001A000021FFF772FD114B00211800FFF78C
:10094000B9FD0F4B00211800FFF7ECFD0C4B002107
:100950001800FFF793FD0A4B00220021180003F056
:1009600077F9074800230322002103F031F9044BF3
:100970001800FFF71FFDC046BD4602B080BDC0464F
:1009800000C0004080B582B000AF78600F4B180007
:10099000FFF72EFD02007B68D3180C481A000121D6
:1009A000FFF73CFD094B01211800FFF79FFD074BA6
:1009B00001211800FFF7B6FD044B01211800FFF7D5
:1009C00043FDC046BD4602B080BDC0460040014068
:1009D00080B582B000AFFB1D00221A70FB1D002203
:1009E0001A7066E0FB1D1B785A4AD35C202B07D196
:1009F000FB1D1B785A00584BD2000021D15027E034
:100A0000BB1D00221A701FE0BB1D1A78534B9200C9
:100A1000D25AFB1D1B784F49CB5C9BB29A420ED138
:100A2000FB1D1B785A00BB1D1B784C499B00CB1843
:100A300002331B881900484BD200D15008E0BB1D7F
:100A40001A78BB1D01321A70BB1D1B78112BDBD924
:100A5000FB1D1B785B00FA1D127841498A5C11006E
:100A6000404A12884A431100FA2292004A433A4906
:100A7000DB00CB1804331A60FB1D1B785B005A1C8B
:100A8000354BD2000021D150FB1D1B785B00013398
:100A9000344A12881100FA2292004A4352082E4921
:100AA000DB00CB1804331A60FB1D1A78FB1D0132E2
:100AB0001A702D4B1B78FA1D12789A4292D3FB1DA7
:100AC0001B789BB2DB189AB2284B1A80284B002265
:100AD0001A8080235B00274A1900100003F04EF8AB
:100AE000244B01211800FFF78DFC224B180003F066
:100AF00053F81020FFF71AFC1E4B1800FFF768FC94
:100B00001B4B1B889BB21A00134BD200D358002BEF
:100B100009D0174B1B889BB21A000F4BD200D35839
:100B20001800FFF7F7FE124B1B889BB20A4ADB0046
:100B3000D31804331B681800FFF724FF0C4B1B88E5
:100B40009BB201339AB20A4B1A80C046BD4602B02E
:100B500080BDC046F003001080050010E44C00008A
:100B6000B8040010EC030010EE0300100212001095
:100B70000012001000C0004080B500AF0A4B180002
:100B8000FFF726FC084B180003F006F80648002380
:100B90000322002103F01CF8044B01211800FFF789
:100BA0006DFCC046BD4680BD00C000400040014015
:100BB00080B584B000AF39601100FB1D021C1A70B3
:100BC0003B1D0A1C1A80FB1D1B78A13B1A002F4BF2
:100BD0005200D35A19000823FA182D48042302F0B2
:100BE0003DFC0823FB189B781B021AB20823FB1854
:100BF0005B781BB213431AB20E23FB181A8008232A
:100C0000FB181B78FA1D12789A4232D10E23FB187A
:100C10001A88FB1D1B78A03B19001C4B4900CB5ABE
:100C20001800FB1D1B78A13B1900184B4900CB5A3B
:100C3000C31A043B9A421CDC0E23FB181B88002BB2
:100C40001CD00E23FA183B1D12881B889A4215D817
:100C5000FB1D1B78A13B1A000C4B5200D35A0433E6
:100C600019000E23FB181B883A68094802F0F6FBAE
:100C700004E00E23FB1800221A8000E0C0460E2379
:100C8000FB181B881800BD4604B080BD240000106E
:100C90000040034080B582B000AF3D4B00221A7087
:100CA0003C4B9B8819003A003B48042302F0D6FBDA
:100CB0003B009B781B021AB23B005B781BB21343CC
:100CC0001AB2BB1D1A803B001B78A32B5CD1BB1D45
:100CD0001B88002B58D0BB1D1A882E4BDB881900AF
:100CE0002C4B9B88CB1A043B9A424DDC294B9A88AB
:100CF0003B1D04321A803B1D1988284A26480223CE
:100D000002F0ACFB3B1D3A1D128802321A803B1DDB
:100D10001988234A2048012302F0A0FB3B1D3A1DFD
:100D2000128801321A803B1D19881D4B1B781D4A01
:100D3000194802F093FB1A4B1B781A00194B00213B
:100D40009954174B1B7899B23B1D3A1D12888A188B
:100D50001A803B1D1988124B1B78134A0E4802F06B
:100D60007DFB0F4B1B7899B23B1D3A1D12888A18E8
:100D70001A800A4B1B88002B06D0094B1B78002BCE
:100D800002D0034B01221A70C046BD4602B080BD9E
:100D9000390000102400001000400340EC03001054
:100DA000EE030010F0030010B804001080B584B00A
:100DB00000AF39601100FB1D021C1A703B1D0A1C9C
:100DC0001A80FB1D1B78A13B1A00274B5200D35AF7
:100DD0001A003B1D1B88D3180433FA1D1278A03A61
:100DE0001100214A49008A5A934238D80C23FB1833
:100DF000FA1D12781A703B1D1B88DAB20C23FB18FF
:100E00005A703B1D1B881B0A9BB2DAB20C23FB18DD
:100E10009A700C23FB180022DA70FB1D1B78A13B93
:100E20001A00114B5200D35A19000C23FA180F481C
:100E3000042302F05DFBFB1D1B78A13B1A000A4B4B
:100E40005200D35A043319003B1D1B883A680748E7
:100E500002F04EFB054B0121180002F0D3FAC04608
:100E6000BD4604B080BDC0462400001000400340D1
:100E700090B587B000AF0200FB1D1A701223FB185B
:100E8000FA2292001A801023FB1800221A800E23E7
:100E9000FB1809221A80784B00211800FFF7EEFAA0
:100EA000A023DB05754A00219950FB1D1B78002B00
:100EB00000D1A9E0724B1B687B61724A724B110032
:100EC000180003F079F97B69002B6BDA7B695B42D0
:100ED0007B610E23FB181B880E22BA18591C118047
:100EE0001A00694B2D2199545CE07A691223FB1892
:100EF0001B881900100003F0FAFB03001A000C23F2
:100F0000FB181A800C23FB181B88002B3FD01223E0
:100F1000FB181B88012B1AD11023FB181B88002BF0
:100F20000AD10E23FB181B880E22BA18591C1180F7
:100F30001A00554B302199540E23FB181B880E22A2
:100F4000BA18591C11801A004F4B2E2199540E23A8
:100F5000FB181B880E22BA18591C118019000C238B
:100F6000FB181B88DAB21023FB181B88DBB2D31ADC
:100F7000DBB23033DAB2444B5A541023FA180C2344
:100F8000FB181B88191C8900CB18DB18138012234F
:100F9000FC181223FB181B880A21180003F0A7FB7A
:100FA000030023801223FB181B88002B9DD10E23E6
:100FB000FB181B880E22BA18591C11801A00324BDC
:100FC000202199540E23FB181B880E22BA18591C95
:100FD00011801A002C4B462199540E23FB181B88B4
:100FE0000E22BA18591C11801A00274B202199543F
:100FF0000E23FB181B88244A0021D154224A234B7C
:101000001100180003F0CAF8214A204B1100180003
:10101000FFF708FC02001F4B1A601F4B00221A70DA
:101020001E4B00221A701E4B00221A601D4B1B78AB
:10103000DBB201225340DBB2002B05D0194B012259
:101040001A70FFF743FC12E00B4B1800FFF7D0F9C2
:101050000300FA2212019446634407481A00002153
:10106000FFF7DCF9044B00211800FFF7EDF9C0464B
:10107000BD4607B090BDC04600400140FC3F0000A7
:10108000C00000102C4D0000000000103C000010BB
:10109000C8000010E0030010D4030010D5030010B6
:1010A000D80300103600001090B595B000AF7860FE
:1010B00039603423FB18854A1188198092789A7018
:1010C0001823FB18824A13CA13C313CA13C3127816
:1010D0001A704F23FB1801221A7080239A007D4951
:1010E0007D48002301F038F93823FB1801221A71DA
:1010F0003823FB183422BA181A603823FA18764BB2
:101100001100180001F078F903001A004F23FB18B2
:101110001B781A404F23FB18511E8A411A704F2327
:10112000FB181B78002B12D03A684F23FC18796803
:10113000694B180001F098F9030023704F23FB1846
:101140001B78002B03D0644B180001F0D7F938232B
:10115000FB1801221A713823FB181822BA181A60DA
:101160003823FA185C4B1100180001F061F90300F4
:101170001A004F23FB181B781A404F23FB18511EEF
:101180008A411A704F23FB181B78002B00D18CE08A
:101190000C23FB1852221A70504B1B781A00504B2C
:1011A0001B78DBB2D31A9BB21A1C9200D3189AB2E6
:1011B0004C4B1B78DBB29BB2D31A9AB24623FB1876
:1011C00092001A80484B1B680533BB64474B1B6871
:1011D000BA6C9A4204D3454B1B68BA6CD31ABB64F1
:1011E000BB6C0621180003F082FA0300DAB20C236C
:1011F000FB185A70BB6C0621180003F078FA0B003C
:10120000DAB20C23FB189A704623FB181B88DAB25B
:101210000C23FB18DA704623FB181B881B0A9BB2B1
:10122000DAB20C23FB181A712C4B1B789AB24623A6
:10123000FB1814214A431A804623FB181B88DAB294
:101240000C23FB185A714623FB181B881B0A9BB200
:10125000DAB20C23FB189A71204B1B78053BDAB2EB
:101260000C23FB18DA71224B1A68224B9A4204D1E4
:101270000C23FB1857221A7203E00C23FB1855228B
:101280001A724F23FC180C23F918134B092218006B
:1012900001F0EAF8030023704F23FB181B78002BA2
:1012A00003D00D4B180001F029F94F23FB181B78D0
:1012B000002B03D0084B180001F068F94F23FB18EE
:1012C0001B781800BD4615B090BDC046404D0000CB
:1012D000444D00000C1400100C160010DC0300102C
:1012E000D5030010D4030010D8030010E003001051
:1012F000E8030010684A000080B582B000AFFB1D13
:1013000000221A70114B3B603B6804331B68104A83
:10131000934214D13B680F4A1A603B681B680D4A20
:10132000934209D13B6804331B68094A934203D1B5
:10133000FB1D01221A7002E03B68054A1A60FB1D82
:101340001B781800BD4602B080BDC0460081054034
:10135000FD020000FD02010080B582B000AF044B29
:101360007B607B68034A1A60C046BD4602B080BD00
:1013700000810540FD02000080B584B000AF7860B8
:10138000324B00221A707B6801331B781B021AB2A1
:101390007B681B781BB213431BB29AB22C4B1A808A
:1013A0007B6802337B607B685A1C7A601A78294B11
:1013B0001A700F23FB1800221A700FE00F23FB187E
:1013C0001A787B68591C79601978234B99540F233C
:1013D000FB181A780F23FB1801321A701D4B1B786B
:1013E0000F22BA1812789A42E8D30F23FB181B7801
:1013F000194A0021D1540E23FB1800221A700FE065
:101400000E23FB181A787B68591C79601978134BE6
:1014100099540E23FB181A780E23FB1801321A7008
:101420000C4B1B780E22BA1812789A42E8D3084B5C
:101430001B88002B06D0074B1B78002B02D0034BD8
:1014400001221A70C046BD4604B080BD39000010AC
:10145000EC030010EE030010F0030010B8040010BD
:10146000B0B582B000AFC14B00211800FEF776FF87
:10147000031E00D130E1A023DB0500225A60A02327
:10148000DA05A023D90580231B02CB58B84919409F
:1014900080231B02D150B54B00211800FEF778FFC6
:1014A000B24B1800FEF7A4FF0300FA221201944683
:1014B0006344AE481A000021FEF7B0FFA023DB050D
:1014C0005B68002B1FD0AB4B1B78DBB2092B06D817
:1014D000A84B1B78DBB20133DAB2A64B1A70A64BCD
:1014E0001B78DBB201225340DBB2002B24D0A14B8E
:1014F0001B78DBB2092B1FD99F4B01221A709F4B1F
:1015000001221A7018E09B4B1B78DBB2002B06D02F
:10151000984B1B78DBB2013BDAB2964B1A70964BB4
:101520001B78DBB2002B07D0924B1B78DBB2002B71
:1015300002D1914B00221A70A023DA05A023D9050D
:1015400080231B02CB588A490B4001211943802379
:101550001B02D150A023DB05894A8A4999508A4B46
:101560001B78DBB2002B43D0FB1C00221A703AE040
:10157000864B1B78DBB21A00854B1B68D3187B6047
:10158000844B1B687A689A4204D3824B1B687A6842
:10159000D31A7B60A023DA05FB1C1B787E49CB5C49
:1015A000190001238B4019007C487B68C3181B7805
:1015B000DBB21C00FB1C1B780620C31A1C41230055
:1015C0000120034007D0FB1C1B787348C35C180044
:1015D0000123834000E0002389008B50FB1C1A7814
:1015E000FB1C01321A70FB1C1B78062BC0D937E09C
:1015F000FB1C00221A702FE0A023D905FB1C1B78CE
:10160000654AD35C1A00012393401800604B1A68A6
:101610005E4B1B78DBB21D00614C13009B009B18D6
:10162000E3185B5D1C00FB1C1B780622D31A1C41CF
:1016300023000122134007D0FB1C1B78564AD35CC1
:101640001A000123934000E0002382005350FB1C4A
:101650001A78FB1C01321A70FB1C1B78062BCBD9A5
:10166000A023DB05494A1278D2B211004D4A525CE0
:10167000110001228A4092000021D150434B1B7877
:10168000DBB20133DBB2414A191C1170052B20D1AA
:101690003E4B00221A70444B1B78DBB20133DBB2A5
:1016A000414A191C1170414A1278934211D33E4BA2
:1016B00000221A70364B1B680133354A1360354AD5
:1016C0001268934205D1324B00221A60384B012236
:1016D0001A70384B01221A70244B01211800FEF7B2
:1016E0003DFE031E3ED0214B01211800FEF750FEA7
:1016F000314B1800FEF76CFE2F4800230322002117
:1017000002F066FA2D4B1B889BB21A002C4BD200BC
:10171000D358002B09D0294B1B889BB21A00284BA9
:10172000D200D3581800FFF7F5F8244B1B889BB262
:10173000234ADB00D31804331B681800FFF722F993
:101740001E4B1B889BB201339AB21C4B1A801B4B59
:101750001B889AB21B4B1B889BB29A4202D3174B31
:1017600000221A80C046BD4602B0B0BD0040014014
:10177000FE0F0000E4030010E5030010E603001074
:10178000FC3F0000FF0F000036000010D4030010E3
:10179000D8030010E003001014000010C80000106F
:1017A000A84C00001C000010D5030010DC03001042
:1017B000C40000103700001000C0004000120010EC
:1017C000800500100212001090B58DB000AF2523E7
:1017D000FB1800221A70FEF731FF2423FC1802F0D8
:1017E00027F8030023702423FB181B78012B23D137
:1017F000A023DB05CF49E62212015A50CE4B180038
:10180000FEF7F6FD0300CD4A94466344CA481A0029
:101810000221FEF703FEC84B02211800FEF766FE08
:10182000C54B02211800FEF77DFEC34B02211800B4
:10183000FEF70AFE30BF57E3C14B00221A70C14BBE
:1018400000221A70C04B00221A70C04BC04A1A60A6
:101850002223FC18BF4B6E221900A120FFF7A8F924
:10186000030023802223FB181B88002B05D0B94BD3
:10187000180002F0C3FC031E05D1B74AB54B110096
:10188000180002F099FCB34B180002F0B7FC0300FB
:10189000DAB2B24B1A70FFF7FDF9B14B64221A802D
:1018A000B04B00221A8080239B00A34A190010002D
:1018B00002F064F9A04B01211800FEF7A3FD9E4B36
:1018C000180002F069F91220FEF71AFD9A4B180071
:1018D000FEF770FD01E3A44B1B78DBB2002B66D052
:1018E000A24B1B78DBB201225340DBB2002B5ED04F
:1018F0009F4B14221A701423FB1804221900A220F3
:10190000FFF756F9031E10D07B69DBB20533DAB25C
:10191000974B1A70964B1B78042B03D9944B1B786A
:101920001E2B02D9924B14221A70924B00221A706D
:10193000914B00221A70012000F052FB8F4B0022C5
:101940000321180001F024FE8C4B00220A2118000C
:1019500001F01EFE894B00220B21180001F018FE39
:10196000A023DB05734A00219950A023DA058023C8
:101970001B02D358A023DA0580231B028049D150D3
:101980000120FFF775FA714B1A687E4B9A420ED10F
:101990007D4B1B78002B0AD07C4B01221A70774BB1
:1019A00001220321180001F0F3FDFFF711F86F4B3E
:1019B0001B78DBB201225340DBB2002B26D025235B
:1019C000FB181B7801225340DBB2002B1ED02523CD
:1019D000FB1801221A70584B00211800FEF74EFD2B
:1019E000A023DB05534A00219950694B0C221A6051
:1019F000684B00221A70684B00221A70674B002255
:101A00001A605B4B05221A70FEF760FF4E4B1B7885
:101A1000DBB2002B4FD04C4B00221A704B4B1A6894
:101A20004B4B9A4203D1494B564A1A6002E0474B4E
:101A3000474A1A604D4B1B78DBB2002B27D00020A1
:101A4000FFF716FA414B1A684E4B9A420FD14E4B94
:101A50001B78002B2FD04D4B01221A70474B0122CF
:101A60000321180001F094FDFEF7B2FF23E0474B7D
:101A70001B78002B1FD0FFF77FF8404B002203217B
:101A8000180001F085FD414B00221A7013E02F4B26
:101A90001A683C4B9A4208D1FFF76EF8374B012287
:101AA0000321180001F074FD05E0344B00220321EE
:101AB000180001F06DFD2D4B1B78DBB2002B00D11F
:101AC00004E12D4B1B78DBB2002B00D1FEE02A4B4A
:101AD00000221A70324B1B68FB62204B1B789AB2B3
:101AE0002623FB1809321A801C4B1B781A00194B4D
:101AF000D3182C4A1100180002F05EFBFB6A002B81
:101B00000DDAFB6A5B42FB622623FB181B88262248
:101B1000BA18591C11801A000E4B2D2199542A23F2
:101B2000FB18FA2292001A802823FB1800221A8040
:101B300097E0C046FC3F000000400140A086010045
:101B4000E4030010E5030010E6030010E8030010B2
:101B5000684A00003C000010604D0000BE0000100C
:101B6000041200100612001035000010360000109C
:101B7000DC03001037000010C400001000400440D7
:101B8000FF0F000028480000390000103800001046
:101B9000E0030010D4030010D5030010D803001098
:101BA000C00000102C4D0000FA6A2A23FB181B8885
:101BB0001900100002F09BFD03001A002023FB18FF
:101BC0001A802023FB181B88002B3FD02A23FB18E8
:101BD0001B88012B1AD12823FB181B88002B0AD144
:101BE0002623FB181B882622BA18591C11801A00BC
:101BF000C14B302199542623FB181B882622BA1882
:101C0000591C11801A00BC4B2E2199542623FB1815
:101C10001B882622BA18591C118019002023FB1892
:101C20001B88DAB22823FB181B88DBB2D31ADBB27D
:101C30003033DAB2B04B5A542823FA182023FB1859
:101C40001B88191C8900CB18DB1813802A23FC1869
:101C50002A23FB181B880A21180002F048FD030004
:101C600023802A23FB181B88002B9DD12623FB18D9
:101C70001B882622BA18591C11801A009E4B20215D
:101C800099542623FB181B882622BA18591C118048
:101C90001A00994B462199542623FB181B882622AB
:101CA000BA18591C11801A00934B202199542623ED
:101CB000FB181B88904A0021D154904A8E4B11008A
:101CC0001800FEF7AFFD02008D4B1A608D4B1B789C
:101CD000DBB2002B00D1C2E0FFF70EFB031E00D1E8
:101CE000BDE0884B00221A7080239A008649874BFA
:101CF000180000F03DFD031E00D1AEE0A4E03B0063
:101D00001B78032B30D13B005B688149022218000D
:101D100002F09EFA031E27D11023FA187B4B110004
:101D2000180000F0EBFE0300FB613B691A00F96943
:101D3000714B180002F0B6FA3B696F4A0021D1548A
:101D40003B69DAB2734B1A703B699BB204339BB2A6
:101D5000032293439AB2684B1900A120FFF726F89B
:101D60000120FFF785F86FE03B001B78042B6BD157
:101D70003B005B6868491822180002F069FA031EEC
:101D800062D11023FA18614B1100180000F0B6FE62
:101D90000300BB61BB691B78532B1AD1BB690133AC
:101DA0001800FFF7E9FABB69591C3B699BB2023383
:101DB0009BB2032293439BB21A00A320FEF7F6FFC7
:101DC000564B1B78002B3FD0FEF7D6FEFEF700FEE9
:101DD0003AE0BB691B78512B36D1514B00211800DA
:101DE000FEF74CFBBB6901331B780533DAB24D4B70
:101DF0001A704C4B1B78042B03D94A4B1B781E2BB3
:101E000002D9484B14221A70454B1800FEF7F0FA1D
:101E10000300FA2212019446634441481A0000214B
:101E2000FEF7FCFA3E4B00211800FEF70DFBBB69E4
:101E3000591C3B699BB203339BB2032293439BB271
:101E40001A00A220FEF7B2FF3A00304B1100180032
:101E500000F0F2FC031E00D051E7FFF77DFA324B91
:101E60001B78DBB2002B1FD0264B1B78DBB2012284
:101E70005340DBB2002B17D02C4B1B78DBB2002B6E
:101E800012D0FFF739FA031E0ED0284B00221A7029
:101E9000194B180002F0B2F90200174B110018009C
:101EA000FFF702F9FFF758FA00F0DAF8031E13D033
:101EB0001D4B1B78DBB2002B05D000230022032131
:101EC000052000F063F91A4B1B8801339AB2184BB6
:101ED0001A80012000F084F830BF154B1A88154B8A
:101EE0001B889A4200D2F6E4FEF772FC0023180029
:101EF000BD460DB090BDC0463C000010C8000010AB
:101F0000E0030010340000100C1400100C16001038
:101F1000404D0000BE000010444D0000380000108D
:101F200000400140DC0300103600001037000010B4
:101F3000061200100412001080B582B000AF02003B
:101F4000FB1D1A70064BFA1D127811001F220A4061
:101F5000012191400A001A60C046BD4602B080BD12
:101F600000E100E090B583B000AFFC1D0E4B1800FF
:101F700001F038FD03002370FB1D1B780A4A19008D
:101F8000100001F049FDFB1D1B780122134007D012
:101F9000054B0121180001F0D9FC044B01221A70F5
:101FA000C046BD4603B090BD004005400812001079
:101FB00080B500AF084B180001F0A0FC064B0121D2
:101FC000180001F0F3FC054B00221A700E20FFF7F9
:101FD000B3FFC046BD4680BD00400540081200105A
:101FE00080B582B000AF78601B4B0021180001F073
:101FF00093FC1A4B00221A707B68002B05D1164BFC
:10200000180001F0BBFC03007B607B68002B01D152
:102010002A237B60104B0321180001F07DFC7B68B4
:102020000D4A1900100001F091FC80235B0118009B
:1020300001F06EFD80235B01180001F07DFD0E2094
:10204000FFF77AFF044B0121180001F0AFFCC046F6
:10205000BD4602B080BDC0460040054008120010D9
:1020600080B500AF024B1B78DBB21800BD4680BDC7
:102070000812001080B582B000AF0200FB1D1A707C
:10208000064BFA1D127811001F220A4001219140CF
:102090000A001A60C046BD4602B080BD00E100E003
:1020A00080B582B000AF0200FB1D1A70074AFB1D0D
:1020B0001B7819001F230B40012199400B001900C8
:1020C0008023D150C046BD4602B080BD00E100E093
:1020D00080B582B000AF164B180001F083FE0300FC
:1020E0007B60144B1B78DBB27A681100180000F09B
:1020F00027F803003B601520FFF7D2FF0C4B1800B8
:1021000001F0FAFD0A4B180001F022FE030018004E
:10211000084B1B78D9B2084B1B683A68FEF75AFA8D
:10212000064B00221A70C046BD4602B080BDC046B4
:10213000000006400A1200100C12001009120010D4
:1021400080B584B000AF02003960FB1D1A703B6897
:10215000002B00DA7F33DB111A003B689B1A8933AE
:102160003B60FB1D1B78032B07D13B680A2118003D
:1021700001F044FE0300FB6002E03B68FB60C046E8
:10218000FB681800BD4604B080BDC04690B585B060
:1021900000AF0400080011003B60FB1D221C1A70F8
:1021A000BB1D021C1A707B1D0A1C1A7001235B42A6
:1021B000FB60314B1B78DBB201225340DBB2002BBA
:1021C00054D02D4B01221A702C4B180001F068FDE1
:1021D000FB1D1B78294A1900100001F0A1FD7B1D91
:1021E0001B7801225340DBB2002B0ED0244BBA1DCA
:1021F00012781A70234B3A681A60204B012118009C
:1022000001F0E2FE1520FFF735FF01235B42FB6082
:102210001A4B180001F0ACFD7B1D1B78002B23D05E
:10222000C046164B0021180001F0B0FD03001A0053
:1022300080239B001340F4D0104B180001F0D2FD16
:102240000200BB1D1B7811001800FFF779FF030087
:10225000FB601520FFF724FF084B180001F04CFD30
:10226000054B00221A7001E00023FB60FB68180098
:10227000BD4605B090BDC0460912001000000640E2
:102280000A1200100C12001080B582B000AF0200DC
:10229000FB1D1A70064BFA1D127811001F220A400E
:1022A000012191400A001A60C046BD4602B080BDBF
:1022B00000E100E080B582B000AF0200FB1D1A70A3
:1022C000074AFB1D1B7819001F230B400121994071
:1022D0000B0019008023D150C046BD4602B080BD1E
:1022E00000E100E080B500AF104B012252421A60BD
:1022F0000F4B0221180001F003FA0D4B00211800CA
:1023000001F0B2F9A1235B00094A1900100001F0A5
:10231000ABF90D20FFF7B8FF064A054B1100180076
:1023200001F0CCF9C046BD4680BDC0461012001079
:1023300000800540FF01000080B500AF054B002183
:10234000180001F091F90D20FFF7B4FFC046BD461B
:1023500080BDC0460080054080B586B000AFF86003
:10236000B9607A601A00FB1C1A70FB683B61FB685D
:10237000002B02D0BB68002B00D100BEBB6803223B
:10238000134000D000BE7B680B2B03DD7B6803226B
:10239000134000D000BE3B697A689A603B69002216
:1023A0001A613B690022DA603B69FA1C12781A76DE
:1023B0000C237B617A690F49BB68180001F082FE2B
:1023C000FB1C1B78002B02D07B69023B7B617B6985
:1023D000BA68D318BB607B695A1C3B695A603B6979
:1023E000BA681A603B6901221A75C046BD4606B03C
:1023F00080BDC0468C4D000080B584B002AF7860CF
:1024000039603B68002B03D03B681B68002B00D170
:1024100000BE3968786801230193052300930123E6
:10242000032200F097FB03001800BD4602B080BDF8
:1024300080B584B002AF786039603B68002B03D070
:102440003B681B68002B00D100BE39687868012307
:102450000193032300930223042200F07BFB03007B
:102460001800BD4602B080BD80B588B000AFF860EE
:10247000B9607A60FB68FB61FB69002B06D0FB69E1
:102480001B68002B02D0BB68002B00D100BEFB698B
:102490005A687B68D318BB61BA6980239B009A4253
:1024A00004DCFB699A68BB699A4201DA002321E0E7
:1024B000FB69DA687B68D3187B61FB695B7D002B65
:1024C00004D07B69FF2B01DD002313E0FB69BA69AF
:1024D0005A60FB697A69DA60FB691B687A68B968D7
:1024E000180001F0EFFDFB691A687B68D218FB69E0
:1024F0001A6001231800BD4608B080BD80B586B0C3
:1025000000AF78607B687B617B69002B07D07B69BB
:102510001B68002B03D07B691B69002B00D100BE18
:102520007B691B6902333B613B691B78FB607B69FC
:10253000DB68FA68D318FB607B695B7D002B06D0F3
:102540003B695A1C3A61FA68D2B21A7016E03B69CC
:102550005A1C3A6100221A703B695A1C3A610022E7
:102560001A703B695A1C3A61FA681212D2B21A7098
:102570003B695A1C3A61FA68D2B21A707B69002230
:102580001A75C046BD4606B080BDC04680B58AB04B
:1025900000AF78607B68BB611723FB1801221A70BB
:1025A0001623FB1801221A707B68002B03D0BB692D
:1025B0001B68002B00D100BEBB695B68FB61BB6977
:1025C0001B7E002B03D0FB690B3B3B6202E0FB69E7
:1025D0000D3B3B623B6A032B0DDDBB691B69002B86
:1025E00000D100BEBB691A69BB691B691B78402119
:1025F0000B43DBB21370BB691A68FB690921CB1A64
:10260000D3183B61BB691B7E002B1DD03B6AFE2BA0
:102610001ADDFB690233FB61FA6980239B009A4251
:1026200001DD002394E0BB6900221A763B69181D86
:102630003B6902333A6A190001F048FDBB691B6827
:102640009A1CBB691A601CE0BB691B7E01225340C7
:10265000DBB2002B15D03B6AFE2B12DCFB69023B80
:10266000FB61BB6901221A763B69981C3B69043304
:102670003A6A190001F02AFDBB691B689A1EBB6902
:102680001A60BB691B68591CBA691160FE221A7076
:10269000BB691A68FB695B42D3183B612E4BFB6038
:1026A000FB690322134004D0FB69032293430433E4
:1026B000FB61BB693A691A60BB69FA695A60274BCA
:1026C0001B6801330FD0254B1A68FB699A420AD266
:1026D000224B1B689B089B003A69D3181A68204B51
:1026E0001A6000F091FBFA693969FB68180001F083
:1026F000E9FC3B6AFE2B0BDD3B6A1A063B6A1902BA
:10270000FF231B040B401343164A13437B620BE069
:10271000154B1B687B627B6A144A13407B623B6AE1
:102720001B027A6A13437B620F4B7A6A1A60172383
:10273000FB181B78002B04D11623FB181B78002BE9
:1027400001D0012300E000231A1C01231340DBB257
:102750001800BD460AB080BD00810540101200106F
:102760001412001003FF000008810540FF00FFFF66
:1027700090B589B000AFF860B9607A60FB68BB6162
:102780001F23FB1801221A70FB68002B02D0BB68C4
:10279000002B00D100BEBB680322134000D000BE56
:1027A0007B680B2B03DD7B680322134000D000BE47
:1027B0001023FB18180000F09FFA03007B617B696F
:1027C000002B01D1002330E03B691A007B699B1884
:1027D0001A00184B9A4201D9002326E03B697A6817
:1027E0009A4201DA002320E0BB697A689A60BB69EB
:1027F000BA681A603A69BB695A603B69002B0ED00F
:102800003B691A007969BB68180001F05BFC1F2363
:10281000FC18FB68180000F0B7FA03002370BB69CE
:102820000022DA601F23FB181B781800BD4609B090
:1028300090BDC046FF82054080B58EB000AF786085
:1028400039607B68BB627B68002B06D03B68002B3D
:1028500003D0BB6A1B68002B00D100BE3B6800227E
:102860005A603B6800229A60BB6A0022DA60BB6A49
:102870005B687B62BB6A1B687B637B6A002B3AD018
:10288000BB6A7A6B1A617B6B5A1C7A631B783B625A
:102890003B6ADAB21F23FB1807210A401A703B6A11
:1028A00008221A401E23FB18511E8A411A703B6AE7
:1028B00010221A401D23FB18511E8A411A703B6AD0
:1028C000202213405A1E9341DAB23B681A731D232B
:1028D000FB181B781A009B00D31A07331E22BA1864
:1028E000127801214A40D2B29B1ABB617A6ABB6955
:1028F0009A4204DA01E00023FBE00023F9E07A6A5F
:10290000BB69D31A7B627B6B5A1C7A631B787B6131
:102910001D23FB181B78002B05D07B6B5A1C7A6398
:102920001B783B631DE07B6B5A1C7A631B781B068C
:102930003B637B6B5A1C7A631B781B043A6B134313
:102940003B637B6B5A1C7A631B781B023A6B134305
:102950003B637B6B5A1C7A631B781A003B6B1343F7
:102960003B630023FB621E23FB181B78002B04D063
:102970007B6B5A1C7A631B78FB627A693B6BD218BB
:10298000FB6AD318BB617A6ABB699A4201DA0023F9
:10299000AFE07A6ABB69D31A7B62BB6A7A6A5A6013
:1029A0001F23FB181B78012B18D002DC002B06D04C
:1029B0008FE0022B5FD0042B00D173E089E07B69AC
:1029C000002B05D1FB6A002B02D13B6B002B01D001
:1029D00000238EE03B6800221A7081E07B69012BA6
:1029E00047D17B6B5A1C7A631B783B611E23FB1813
:1029F0001B78002B03D0FB6A7A6BD3187B633B6B8D
:102A0000013B3B633B69542B20D13B6803221A7086
:102A10007B6B5A1C7A631B783B623B6A80221340B3
:102A200001D0002365E03B6A3F2213403B623B68D4
:102A30007A6B5A603B683A6A9A603A6B3B6AD31A7F
:102A40003B633B6A7A6BD3187B6344E03B69552B4D
:102A50000DD13B6806221A707B6B5A1C7A631B7877
:102A6000FB60FB68232B36D90023FB6033E0002397
:102A70003FE000233DE03B6804221A703B687A6B1C
:102A80005A603B687A699A607B697A6BD3187B637A
:102A90001E23FB181B78002B1FD0FB6A7A6BD31800
:102AA0007B631AE03B6805221A703B687A6B5A60B8
:102AB0003B687A699A607B697A6BD3187B631E23C3
:102AC000FB181B78002B0AD0FB6A7A6BD3187B6348
:102AD00005E000230DE0C04602E0C04600E0C0462D
:102AE0003B6B7A6BD218BB6A1A60BB6A3A6BDA60CE
:102AF00001231800BD460EB080BDC04680B584B02D
:102B000000AF786039607B68BB607B68002B06D0C3
:102B10003B68002B03D0BB681B68002B00D100BEB4
:102B2000BB68DB68002B0BD0BB68DA683B681A60B7
:102B3000BB681A68BB68DB685B42D318FB6004E0C3
:102B40003B6800221A600023FB60FB681800BD464A
:102B500004B080BD80B58AB000AFF860B9601900DC
:102B6000FB1D1A70BB1D0A1C1A70FB68FB61FB6918
:102B7000002B03D0FB691B68002B00D100BE1B2378
:102B8000FB18BA6812791A7000233B623423FB18D1
:102B90001B78002B06D0BB681B68180001F02EFBC9
:102BA00003003B623A6B3B6AD3183B631B23FB1861
:102BB0001B7801225340DBB21A0013005B009B1804
:102BC0003A6BD3183B63FB695A683B6BD3187B6144
:102BD0007A6980239B009A4204DCFB699A687B69CE
:102BE0009A4201DA002382E0FB697A695A60FB6944
:102BF0001B687B62FB690022DA60FB697A6A1A61F2
:102C0000FB691B22BA1812785A757B6A5A1C7A62C1
:102C1000FA69127DD20151B21B22BA181278120140
:102C200052B20A4351B2BA1D127852B20A4352B29A
:102C3000D2B21A70BB1D1B78012B0DD17B6A5A1CB6
:102C40007A6201221A707B6A5A1C7A623A6AD2B29C
:102C50000132D2B21A700AE07B6A5A1C7A623A6A6E
:102C6000D2B21A707B6A5A1C7A6200221A701B2335
:102C7000FB181B7801225340DBB21A0013005B00E3
:102C80009B181A007B6A9B187B62FB1D1B78032B29
:102C90000ED17B6A5A1C7A6254221A707B6A5A1CC3
:102CA0007A623A6AD2B23F210A40D2B21A700FE079
:102CB000FB1D1B78062B0BD17B6A5A1C7A625522AE
:102CC0001A707B6A5A1C7A62BA689268D2B21A7019
:102CD000BB6819683A6A7B6A180001F0F3F93B6A2D
:102CE0007A6AD3187B62FB697A6A1A60012318003A
:102CF000BD460AB080BDC04680B584B000AF7860E4
:102D0000204BFB60FC235B00BB6002E0FB680133EF
:102D1000FB60BB685A1EBA60002B03D0FB681B78AF
:102D2000032BF3D1FB680133FB60BB685A1EBA600A
:102D3000002B01D1002321E0FB685A1CFA601B78AC
:102D40001A007B681A607B681B68FF2B15D1BB6873
:102D5000012B10DDFB685A1CFA601B781A027B6895
:102D60001A60FB685A1CFA601A787B681B681A4361
:102D70007B681A6001E0002300E0FB681800BD4694
:102D800004B080BD0881054090B58BB000AF78607D
:102D90007B683B622723FB1801221A707B68002B9B
:102DA00003D03B6A1B68002B00D100BE3B6A5B6806
:102DB000FB613B6A1B68BB6112E02723FC180823F8
:102DC000FA187B6811001800FFF736FD0300237026
:102DD0002723FB181B7801225340DBB2002B04D1C0
:102DE0003B6A5B68002BE8DC00E0C0463B6AFA699E
:102DF0005A603B6ABA691A602723FB181B781800CF
:102E0000BD460BB090BDC04690B583B000AFBC1DB1
:102E10000A4B180000F036FC03002380BB1D1B8802
:102E2000882213439BB21A00044B1100180000F0D3
:102E30001BFCC046BD4603B090BDC04600800540A7
:102E400090B583B000AFBC1D0B4B180000F01AFC0E
:102E500003002380BB1D1B8888229343064A190068
:102E6000100000F001FC054B012252421A60C046DE
:102E7000BD4603B090BDC046008005401012001052
:102E800090B587B000AF1223FC18524B180000F029
:102E900007FC030023804F4B1B6A9AB21623FB18D2
:102EA000D205D20D1A801223FB181B88494A19003B
:102EB000100000F003FC1523FB1800221A701623E3
:102EC000FB181B884022134025D0FFF7B9FF424B67
:102ED0001B68FB601623FB181622BA1812880821FB
:102EE0008A431A80FB681B041B0C032B13D03B1D69
:102EF0001800FFF701FF0300BB60BB68002B0AD07E
:102F0000BB687A689B18354A9A18354B1A601523A6
:102F1000FB1801221A701623FB181B880822134085
:102F20000DD02F4B1B68013309D02D4B1B689B081C
:102F30009B002C4A944663442B4A12681A6016235D
:102F4000FB181A8880235B0013400BD11623FB1853
:102F50001B880222134005D11623FB181B888022F0
:102F6000134001D0FFF76CFF1623FB181B880222C9
:102F7000134019D01623FB181A8880235B001340D6
:102F80000ED0144B180000F063FB03001A0010234E
:102F900013405A1E9341DBB21800FDF7DFFA0DE033
:102FA0000120FDF7DBFA09E01623FB181A888023BD
:102FB0005B00134002D00020FDF7D0FA1523FB1868
:102FC0001B78002B01D0FDF7F1FAC046BD4607B0D3
:102FD00090BDC0460080054008810540007FFABFD3
:102FE00010120010008105401412001080B500AFCF
:102FF000054B180000F0BEFAA023DB05180000F016
:10300000ADFAC046BD4680BD0040044080B584B0E6
:1030100000AF78600023FB607B68002B00DC00BE03
:103020007B68012B08DC00F077FA031E04D100F066
:1030300089FA031E00DC00BE7B68802B05DD80233F
:103040007B6002E0FB680133FB607B685B107B60A8
:103050007B68002BF6D10C4B00225A620A4B0A4ABD
:10306000126A0E218A431100FA6852000E200240B3
:103070000A431A62044B00225A62034B01225A622D
:10308000C046BD4604B080BD0080044080B500AF9E
:10309000054B1B6A5B080722134001229A4013006C
:1030A0001800BD4680BDC0460080044080B582B097
:1030B00000AF78607B68002B00DC00BE79680548B3
:1030C00001F012FB03001800FFF7A0FFC046BD4649
:1030D00002B080BD00127A0080B500AFFFF7D6FFC6
:1030E00003001900034801F0FFFA03001800BD4671
:1030F00080BDC04600127A0080B586B000AF78600F
:103100007B68002B2ED07B68184A934200D900BE02
:10311000FFF7E2FF03001900154801F0E5FA03008C
:10312000FB607B68FA2292005343F968180001F0B3
:10313000DEFA03007B617A69E023FF339A4204D907
:103140007B69E13BFF3B7B6101E000237B61002366
:103150003B6102E03B6905333B613A697B699A4216
:10316000F8D300E0C046BD4606B080BD00093D0072
:1031700000CA9A3B80B582B000AF78600649064A23
:103180008023D2587B6805480340134380228B502C
:10319000C046BD4602B080BD00800440FCBF1D009B
:1031A00080B582B000AF78600749074A8023D358C2
:1031B0007A6806480240D243134080228B50C046B2
:1031C000BD4602B080BDC04600800440FCBF1D006B
:1031D00080B582B000AF78600AE07A68FE231B01F8
:1031E000D358042213405A425341DAB2044B1A70A6
:1031F000034B1B78002BF0D1C046BD4602B080BD0A
:103200001812001080B588B000AFF860B9607A601D
:103210003B60BB68002B00DA00BE3B68002B00DC83
:1032200000BEBA683B68D218E8231B019A4200DD51
:1032300000BE7B68FB61BB68002B00DA01335B10CA
:103240005B00C022920594466344BB61BB680122C7
:103250001A401723FB18511E8A411A70FB68180088
:10326000FFF7B6FF474B1B68013300D175E0BB6821
:10327000002B00DA3F339B111A00424B1B689A4225
:1032800007D1BB680122134003D13B6801221340E0
:1032900063D0FB680121180000F0B4F85DE017234B
:1032A000FB181B78002B13D0FB691B781B021AB28A
:1032B000BB691B881BB2FF210B401BB213431BB21F
:1032C0009AB2BB691A801723FB1800221A7024E0F7
:1032D0003B68012B13DDFB6901331B781B021AB21B
:1032E000FB691B781BB213431BB29AB2BB691A80ED
:1032F000FB690133FB613B68013B3B600DE0BB694F
:103300001B881BB2FF2293431AB2FB691B781BB2C6
:1033100013431BB29AB2BB691A80FB690133FB618C
:103320003B68013B3B60BB690233BB612823FB1850
:103330001B78002B01D07B68FB61BB693F221340E7
:103340000BD13B68002B08DD0E4B022252421A6063
:10335000FB680121180000F055F83B68002B9EDC4B
:10336000BB69023BD022120694466344002B00DA6C
:103370003F339B111A00034B1A60C046BD4608B08C
:1033800080BDC0463000001080B584B000AF7860CA
:10339000184B00221A70184B012252421A60C023A7
:1033A0005B031800FFF7E6FE042000F051FB082045
:1033B00000F07AFB6420FFF79FFE042000F05EFB24
:1033C000FFF78AFE03000D4A944663440C49180037
:1033D00001F08AF90300013BFB60FB68002B01DC74
:1033E0000123FB60FA687B685A61C046BD4604B0A1
:1033F00080BDC0461812001030000010D7B805007C
:10340000D8B8050080B582B000AF78600A00FB1C18
:103410001A700F4B1B6801330DD07B680D4A0421D5
:1034200099507B6806221A600B4B01221A70084BD8
:10343000012252421A60FB1C1B78002B03D07B68D0
:103440001800FFF7C5FEC046BD4602B080BDC046AD
:1034500030000010E80F00001812001080B586B090
:1034600000AFF860B9607A603B60BB68002B00DA9F
:1034700000BE3B68002B00DC00BEBA683B68D21877
:1034800080235B019A4200DD00BEBB68002B00DA9E
:103490003F339B117B61BA683B68D318013B002B1B
:1034A00000DA3F339B113B61FB681800FFF790FE89
:1034B0000E4B1B687A699A4209DC0C4B1A683B690F
:1034C0009A4204DCFB6801211800FFF79BFFBB68F0
:1034D000C02292059446634419003A687B6818003C
:1034E00000F0F0FDC046BD4606B080BD30000010C3
:1034F00090B587B002AFF860B9607A603B603C6815
:103500007A68B968F868002300932300FFF77AFE11
:10351000C046BD4605B090BD80B582B000AFC023A7
:103520001B037B60064B1B687A681A407B68D31AC2
:103530005A1E9341DBB21800BD4602B080BDC046A2
:1035400000C0034080B500AF034B1B691A00FF2386
:1035500013401800BD4680BD00C0034080B582B056
:1035600000AF78604020FFF705FEC046BD4602B0C0
:1035700080BDC04680B582B000AF78608023DB029A
:103580001800FFF7F7FDC046BD4602B080BDC0463B
:1035900080B584B000AFF8607A600B23FB180A1C7A
:1035A0001A700B23FB181B780B2B0FD97B68012B90
:1035B0000CD10B23FB181B780C3B01229A40130003
:1035C0001A00FB681100180000F00EF80B23FB181E
:1035D0001A787B681B02190AFB689200D150C0461A
:1035E000BD4604B080BDC04680B582B000AF7860F3
:1035F00039607B6880229B583A6812011209D243D5
:103600001A407B6880215A50C046BD4602B080BD3A
:1036100080B582B000AF78607A6880235B00FE21BD
:10362000D150094B0021180000F01EF8074A064B44
:103630001100180000F042F87B6800221A60C046B2
:10364000BD4602B080BDC04600800540FF010000BD
:1036500080B582B000AF78607B685B68DBB2180031
:10366000BD4602B080BDC04680B582B000AF786074
:1036700039603B68DB05DA0D7B689A61C046BD4660
:1036800002B080BD80B582B000AF78607B689B6976
:103690009BB2DB05DB0D9BB21800BD4602B080BDBE
:1036A00080B582B000AF78607B68DB699BB2DB05D8
:1036B000DB0D9BB21800BD4602B080BD80B582B064
:1036C00000AF78600A00BB1C1A807B68DB690822A7
:1036D0001A400A4B1B681A43084B1A60BB1C1B8814
:1036E000DB05DA0D7B685A62BB1C1B88DB05DA0D33
:1036F0007B685A62C046BD4602B080BD1C120010F5
:1037000080B582B000AF786039603B681A1D7B6875
:103710001A61C046BD4602B080BDC04680B582B0C9
:1037200000AF78607B68FA22920053431800FFF7DD
:10373000E3FCC046BD4602B080BDC04680B584B043
:1037400000AF78603960124A124B1348190000F03C
:103750008DFC0300FB60FB68104A1A407B68134332
:10376000902212011343FB60FB68094A09490A4889
:1037700000F060FC0A4B0A4A126904218A431100D6
:103780003A680A431A6130BFC046BD4604B080BDE6
:1037900000800340201200102080034000F6FFFF4D
:1037A00000ED00E080B586B000AFF860B9607A60E7
:1037B000FA680C4B0C48190000F058FC03007B61C0
:1037C000BB68DB437A691A407B6813437B617B6982
:1037D000FA680449044800F02DFCC046BD4606B016
:1037E00080BDC046201200102080034080B582B00A
:1037F00000AF0200FB1D1A7000F06AF803005BB214
:10380000002B04DAFA235B001800FFF787FFFB1D8B
:103810001B78002B01D0022300E0044B0421180088
:10382000FFF78CFFC046BD4602B080BD02200000FD
:1038300080B582B000AF174A174B1848190000F046
:1038400015FC03007B607A6880231B01134005D0C0
:103850007A6880235B00134000D000BE7A68802322
:103860001B01134010D07A6880235B0013400BD1FA
:103870000B4A094B0948190000F0F8FB0200182315
:103880001340DB08DBB200E0FF231800BD4602B0A6
:1038900080BDC046008003402012001020800340FD
:1038A0001880034080B582B000AF0200FB1D1A7083
:1038B000FB1D1B78DA0380231B0204481900FFF765
:1038C00071FFC046BD4602B080BDC04600800340C7
:1038D00080B500AF064A074B0748190000F0C6FB49
:1038E0000300DBB25F229343DBB21800BD4680BD0C
:1038F00018800340201200102080034080B582B061
:1039000000AF78608023DB001800FFF733FCC0466F
:10391000BD4602B080BDC04690B583B000AF7860B0
:103920000A00FB1C1A707868FB1C1B7807221340E6
:103930000449054C0200200000F07CFBC046BD4657
:1039400003B090BD241200102440054080B582B021
:1039500000AF786039607B680C331A003B681B024B
:103960001B0A0449044800F065FBC046BD4602B08E
:1039700080BDC046241200102440054080B582B0AE
:1039800000AF78607B680C331A00064B06481900BC
:1039900000F06CFB03001B021B0A1800BD4602B0BE
:1039A00080BDC046241200102440054090B583B06D
:1039B00000AF78600A00FB1C1A707B681433180093
:1039C000FB1C1B78012213400449054C0200200017
:1039D00000F030FBC046BD4603B090BD241200107D
:1039E0002440054080B582B000AF78607B68183312
:1039F0001A00074B0748190000F038FB0300DBB240
:103A000001221340DBB21800BD4602B080BDC046A3
:103A1000241200102440054090B583B000AF7860B8
:103A20000A00FB1C1A707B6820331800FB1C1B78F3
:103A3000012213400449054C0200200000F0FAFA6C
:103A4000C046BD4603B090BD24120010244005407E
:103A500080B582B000AF0200FB1D1A70064B064A0B
:103A60005268F91D09780F200140C9430A405A6085
:103A7000C046BD4602B080BD0080044080B582B023
:103A800000AF0200FB1D1A70064B064A5168FA1D72
:103A900012780F2002400A435A60C046BD4602B069
:103AA00080BDC0460080044080B582B000AF0200F7
:103AB000FB1D1A700849084A8E239B00D358FA1D33
:103AC00012783F200240D2431A408E239B00CA50F6
:103AD000C046BD4602B080BD0080044080B582B0C3
:103AE00000AF0200FB1D1A700849084A8E239B0094
:103AF000D258FB1D1B783F2003401A438E239B00A6
:103B0000CA50C046BD4602B080BDC04600800440D9
:103B100080B582B000AF0200BB1D1A800549BB1DF5
:103B20001B88DB04DA0C81239B00CA50C046BD46CB
:103B300002B080BD0080044080B582B000AF0200BA
:103B4000BB1D1A800C49BB1D1B88DB04DA0C8223C9
:103B50009B00CA500849084A82239B00D358BA1DCB
:103B60001288D204D20CD2431A4082239B00CA503E
:103B7000C046BD4602B080BD0080044080B582B022
:103B800000AF786039603B681800FFF7F3FAC04671
:103B9000BD4602B080BDC04680B584B000AF78603D
:103BA0007B685B68FB607B6800225A607B6801224F
:103BB0009A607B6802225A60C0467B689B68002B33
:103BC000FBD17B68FA685A60C046BD4604B080BD30
:103BD00090B585B000AF78600C0010001900FB1C98
:103BE000221C1A70BB1C021C1A707B1C0A1C1A7047
:103BF0007B1C1B785BB201229A407B1C1B785BB25A
:103C000002335B00032199400B001343FB607B6888
:103C1000DB6BFA68D24313407A68D363BB60FB1C4A
:103C200000229A567B1C1B785BB29A40BB681A43F1
:103C3000BB1C19787B1C1B785BB202335B0099407C
:103C40000B001A437B68DA63C046BD4605B090BDE1
:103C500080B584B000AFF860B960FB1D1A70FB1D21
:103C60001B78012B0BD1FB685A6FBB6801210B40FD
:103C7000012199400B001A43FB685A670BE0FB686F
:103C80005B6FBA6801210A40012191400A00D243CA
:103C90001A40FB685A67C046BD4604B080BDC046A6
:103CA00080B582B000AF78600220FFF7FDFE802370
:103CB0005B011800FFF75EFA7B6800221A607B68E0
:103CC00000225A627B6807221A637B680F22DA603F
:103CD00080231A027B681100180000F059F9054A88
:103CE0007B681100180000F061F9C046BD4602B0C3
:103CF00080BDC046FF7F000080B582B000AF786015
:103D00007B6800225A6280235B011800FFF748FAA3
:103D10000220FFF7E3FEC046BD4602B080BDC046AC
:103D200080B582B000AF78600A00FB1C1A707B6817
:103D3000DB680E2293431A00FB1C1B785B000E21EC
:103D40000B401A437B68DA60C046BD4602B080BDB6
:103D500080B582B000AF78607B68DB685B08DBB25F
:103D600007221340DBB21800BD4602B080BDC0463A
:103D700080B582B000AF78607B681B6801221A436F
:103D80007B681A60C046BD4602B080BD80B584B075
:103D900000AF786039607B681B68012213401B020A
:103DA000FB607B689B6A012213405B02FA68134345
:103DB000FB607B689B681F221340FA681343FB601B
:103DC0003B68002B08D07B689B685B09DBB207224D
:103DD0001340DAB23B681A70FB689BB21800BD460C
:103DE00004B080BD80B582B000AF78607B685B684E
:103DF0001BB21800BD4602B080BDC04680B584B07D
:103E000000AF786039603B68002B00DC00BE396889
:103E10008023D80000F068FC0300FB607A68130080
:103E20005B009B181A01D31A3A685343FA6853434C
:103E3000002B10DD7A6813005B009B181A01D31A5F
:103E40003A685343FA6853430833002B00DA0F33C0
:103E50001B1119000FE07A6813005B009B181A0110
:103E6000D31A3A685343FA685343083B002B00DAED
:103E70000F331B1119003B68444A5343FA685343FC
:103E8000CB1A002B3BDD7A6813005B009B181A01EC
:103E9000D31A3A685343FA685343002B10DD7A680B
:103EA00013005B009B181A01D31A3A685343FA684F
:103EB00053430833002B00DA0F331B1119000FE0B6
:103EC0007A6813005B009B181A01D31A3A685343AF
:103ED000FA685343083B002B00DA0F331B1119001B
:103EE0003B682A4A5343FA685343CA1AFB68642161
:103EF0004B43002B00DA01335B10D3183AE07A68A9
:103F000013005B009B181A01D31A3A685343FA68EE
:103F10005343002B10DD7A6813005B009B181A01D5
:103F2000D31A3A685343FA6853430833002B00DA34
:103F30000F331B1119000FE07A6813005B009B1808
:103F40001A01D31A3A685343FA685343083B002BCB
:103F500000DA0F331B1119003B680C4A5343FA680F
:103F60005343CA1AFB6864214B43002B00DA013328
:103F70005B10D31AFA6864214A431100180000F05C
:103F8000B3FB03001800BD4604B080BD8FB3000032
:103F900080B582B000AF786039603B681B041A0CB2
:103FA0007B68DA61C046BD4602B080BD80B582B094
:103FB00000AF786039603B681B041A0C7B681A629A
:103FC000C046BD4602B080BD80B582B000AF78600B
:103FD0000A00FB1C1A70FB1C1B7807221A407B6826
:103FE0005A62C046BD4602B080BDC04680B500AF33
:103FF00000BEFEE780B584B000AF78600023FB60B0
:1040000002E0FB680633FB607B681B6801221340FB
:1040100003D1FB68064A9342F3DD7B681B680122EB
:10402000134000D100BEC046BD4604B080BDC046AE
:10403000CF03000080B584B000AFF860B9607A604B
:104040003B60FB681800FFF7D5FFBB681B685A1C74
:10405000BB681A607B683A681A60FB681800FFF753
:10406000C9FFC046BD4604B080BDC04680B586B01D
:1040700000AFF860B9607A60BB681B685A1CBB6807
:104080001A60FB681800FFF7B5FFBB681B687B610F
:104090007B681B683B61FB681800FFF7ABFF7B6820
:1040A0001B683B61BB681A687B699A42E9D13B692E
:1040B0001800BD4606B080BD10B500F00BF8FDF746
:1040C00083FB10BD10B500F04CFB10BD10B500F027
:1040D0005EFB10BD37B5184C18492200002000F0D7
:1040E0000DF9802380225B00D2000021200000F027
:1040F0002FF8134C134D22002900012000F0FEF888
:10410000802380225B00D2000021200000F020F8F4
:104110000D4B1B680193022B0DDD0C4C2900220076
:10412000022000F0EBF8802380225B00D200002107
:10413000200000F00DF837BD2C120010984D000043
:10414000681200109A4D00009C4D0000A41200104F
:10415000F0B5C6680124B5071BD08025AD00AA4282
:104160000CD08025ED00AA4204D080256D00AA4223
:104170000FD103E001002300243104E0064F5D1E4F
:104180000124BD4205D80024324301610160C361AE
:10419000C2602000F0BDC046FEFFFF00020010B567
:1041A0001378002B01D00132FAE7CC5CD4540133F0
:1041B000002CFAD110BDFFFF03000B4330B59B0765
:1041C00011D103000B4D0A680B4C141994432C4277
:1041D00002D104C30431F6E7D1B2197001330029CA
:1041E00007D01212F8E70023CA5CC2540133002A38
:1041F000FAD130BD80808080FFFEFEFE032210B524
:10420000431C104206D00130411E09780029F8D124
:10421000C01A18E00C4C02680C4951189143214215
:1042200001D10430F7E7D4B2411C002C0AD0FF249E
:104230002402811C224205D0FF242404C11C2242F6
:1042400000D0011DC81A10BD80808080FFFEFEFED8
:1042500003000B4330B59B070FD1104D032A0CD937
:1042600004680B689C4208D10D4BE318A3432B4212
:1042700003D104300431043AF0E70024A2420AD00A
:10428000035D0D5DAB4201D0581B05E00134002BEE
:10429000F4D1180000E0002030BDC046808080804E
:1042A000FFFEFEFE70B504000C430300A4070CD112
:1042B000104E032A09D90D680F4C2C19AC43344217
:1042C00003D120C30431043AF3E7013A541C0FD060
:1042D0000C7801335D1E2C700131551E002C05D168
:1042E0009A18934204D01C700133FAE72A00EDE7D4
:1042F00070BDC04680808080FFFEFEFEF7B50D00D9
:1043000001901000140000F033F82B78722B09D0C4
:10431000772B04D0612B25D10823144A04E0042311
:10432000022201E0002301220220691C03278446A7
:104330000426012508782B2805D0622807D13243AE
:104340002B430131F6E760463A430343F9E7E26065
:10435000019A62611B0706D502220021200000F0AD
:1043600057F800E000242000FEBDC0460280000097
:10437000F0B5C46889B00500A30721D0230718D47D
:104380004769066900F022F8380000F023FA230597
:1043900002D5300000F070F90B4BA40DA4059C422F
:1043A00007D12022296A684600F032FA684600F0F8
:1043B000CBF83C220021280000F0CFF8002001E0DB
:1043C0000120404209B0F0BD000080AD73B5002867
:1043D00006D10D4B04001B68050001933C260EE03E
:1043E00000F0C0F805000DE030006043074BC01836
:1043F00000F0B8F8002801D001256D420134019B7E
:104400009C42F1DB280076BD9C4D00002C12001070
:10441000F7B5394BC66804000D0000921E4267D004
:1044200043691800019300F0E1F9071E60D1009B79
:10443000012B04D0022B07D0002B59D122E0200001
:1044400000F05EF82D181DE0019800F0C9F9E2684F
:10445000002804DA80231343E360012749E0E16A7E
:104460002368994200D90B00A1695B1821695B1A86
:10447000920603D5A26A934200DA1300834200DA5F
:104480000300ED18002D33DBB30404D52368E26A82
:104490009A4200D2E362A06985420EDBE26A236899
:1044A000934200D21300226919180092891A8D4292
:1044B00003DC216B4218954206DB20231E430023B8
:1044C000A562A36063600FE02D1AB20701D5691AD7
:1044D000A160F20703D5009A9B1AEB1A6360009B58
:1044E0005D19202325609E43044B1E40E66000E0DA
:1044F00002273800FEBDC04603001000BFCFF7FF03
:10450000C3689A0705D1212201200E4B40421A6050
:1045100016E0202219030AD5134201D0806A04E074
:104520000368826900699B18181A013808E0134271
:1045300001D0806A04E00368826900699B18181A38
:104540007047C0462812001010B50400FFF756FE51
:104550000100200000F050F910BD10B500F025F961
:1045600010BDFFFFC36870B504000320184019D0C8
:104570009B0604D52000A66A00F096F804E02368A4
:10458000A2699E182369F61AE268074B20001340BF
:10459000E36000F00BF80500002231002000FFF777
:1045A00037FF280070BDC046FFCFFFFF70B5040085
:1045B00005690168C26A134BC0680340E360822347
:1045C0000340022B02D00120404219E080235B020D
:1045D000184015D0914200D211008D4208D1002020
:1045E000E268094BE56213402560A060E36007E0E4
:1045F000491B2200280000F009F80028EFD0E2E76C
:1046000070BDC046FFFFF7FFFFFFFEFFF7B5D6689E
:1046100001900D0014005769F30205D510233800EE
:104620001E4300F0DDF8A061114B1E4209D0A169C4
:10463000380000F0E7F88023002811DB0D4B1E4006
:10464000E6602A000199380000F0E8F843005B08B2
:10465000ED1AA3695D190023A561984205D0803346
:10466000E2681343E36001235B421800FEBDC046CD
:1046700010000200EFFFFDFF10B5002812D08023CC
:104680005B0519000C3803608268002A0AD01368A1
:104690008B4207D1546843681B1903334360936806
:1046A0008360F1E710BDFFFF202310B50400C2684E
:1046B0009A43E2608369826A93420CD0FFF776FFE7
:1046C000E268074B134010221343E360A36AA3611F
:1046D0002369E3622360E268024B1340E36010BD8C
:1046E000EFCFFFFFBFBFFFFF03000B4321D4002923
:1046F00031D00122D207030901E0090112099942D0
:10470000FBD9430801E0490052089942FBD900E077
:104710004908401A07D35241FAD301461046704760
:1047200049084018F7D29218FAD3401801461046AB
:104730007047CB0F00D04942021000D54042534091
:1047400008B5FFF7D4FF0CBC521000D34042002A3A
:1047500000D549421847F446002000F001F86047B0
:1047600070478446830708D18B0706D1131F04D3F3
:1047700004C904C0043BFBD21A1D524205D0891A59
:10478000801A8B5C83540132FBD1604670478842AB
:1047900007D98B18834204D9013A8B5C8354FBD12F
:1047A000704700B5FFF7DDFF00BD8446043A09D32A
:1047B000830707D109060B0A19430B0C1943043A66
:1047C00002C0FCD2043203D001700130013AFBD1A7
:1047D0006046704703B469460220ABBE02B0704722
:1047E00003B469460C20ABBE02B0704703B46946FF
:1047F0000920ABBE02B0704703B469460E20ABBEC1
:1048000002B0704703B469460A20ABBE02B07047DD
:104810000FB469460D20ABBE04B070470FB46946B3
:104820000520ABBE04B0704700000000000000008F
:104830002E000000000600060000143E143E140086
:104840002C2A3E2A1A0022100804220018242A3694
:10485000300000000402000000001C2200000000E4
:10486000221C0000002A1C1C2A0008083E08080020
:1048700000002010000008080808080000002000C0
:1048800000002010080402001C322A261C0000240C
:104890003E2000003A2A2A2A2E0022222A2A3E00FE
:1048A0001018143E10002E2A2A2A12003E2A2A2A04
:1048B0003A000202320A06003E2A2A2A3E002E2A26
:1048C0002A2A3E000000001400000000201400000E
:1048D000000814220000001414141400002214080C
:1048E00000000004022A04003E22222A2E0038146E
:1048F000121438003E2A2A2A14001C2222221400F4
:104900003E2222221C003E2A2A2222003E0A0A02BD
:1049100002001C22222A18003E0808083E0000223D
:104920003E2200001222221E02003E080C14220029
:104930003E20202020003E0408043E003E040810D3
:104940003E001C2222221C003E0A0A0A04001C22ED
:104950002A122C003E0A0A1A2C00242A2A2A1200A3
:1049600002023E0202001E2020201E00020C300C1B
:1049700002003E1008103E00221408142200020417
:104980003804020022322A262200003E22220000A1
:10499000020408102000000022223E000804020445
:1049A000080020202020200000000204000038140D
:1049B000121438003E2A2A2A14001C222222140033
:1049C0003E2222221C003E2A2A2222003E0A0A02FD
:1049D00002001C22222A18003E0808083E0000227D
:1049E0003E2200001222221E02003E080C14220069
:1049F0003E20202020003E0408043E003E04081013
:104A00003E001C2222221C003E0A0A0A04001C222C
:104A10002A122C003E0A0A1A2C00242A2A2A1200E2
:104A200002023E0202001E2020201E00020C300C5A
:104A300002003E1008103E00221408142200020456
:104A40003804020022322A26220000000000000062
:104A50000000000000000000000000000000000056
:104A60000000000000000000000000000000000046
:104A70005F000000000700070000147F147F14008F
:104A8000242A7F2A12002313086462003649552223
:104A90005000000503000000001C224100000041FE
:104AA000221C0000082A1C2A080008083E080800EA
:104AB000005030000000080808080800006060008E
:104AC00000002010080402003E5149453E0000420B
:104AD0007F4000004261514946002141454B310071
:104AE0001814127F10002745454539003C4A4949B2
:104AF000300001710905030036494949360006496D
:104B000049291E000036360000000056360000001D
:104B10000008142241001414141414004122140833
:104B20000000020151090600324979413E007E1120
:104B300011117E007F49494936003E414141220022
:104B40007F4141221C007F49494941007F090901F9
:104B500001003E41415132007F0808087F000041BA
:104B60007F4100002040413F01007F0814224100A6
:104B70007F40404040007F0204027F007F04081015
:104B80007F003E4141413E007F09090906003E4148
:104B900051215E007F0919294600464949493100E3
:104BA00001017F0101003F4040403F001F204020A5
:104BB0001F007F2018207F00631408146300030483
:104BC0007804030061514945430000007F414100E2
:104BD00002040810200041417F000000040201028D
:104BE0000400404040404000000102040000205406
:104BF000545478007F4844443800384444442000EA
:104C0000384444487F00385454541800087E090141
:104C10000200081454543C007F0804047800004447
:104C20007D4000002040443D0000007F10284400EB
:104C300000417F4000007C04180478007C080404D4
:104C400078003844444438007C14141408000814D4
:104C500014187C007C0804040800485454542000B4
:104C6000043F444020003C4040207C001C20402069
:104C70001C003C4030403C004428102844000C50AC
:104C800050503C004464544C44000008364100003D
:104C900000007F00000000413608000010040810EA
:104CA0000800081C2A08080000000100000000029B
:104CB00000000000040000000008000000001000D8
:104CC0000000002000000000400000000020000064
:104CD00000001000000000080000000004000000B8
:104CE0000002000063007B076400A4066500EF0576
:104CF00066009805730048056700FB0461007004B6
:104D0000760031046200F6034300BC034400540300
:104D10004500F602460051024700D40141005A0105
:104D20004200E00078008F027900CB022054656DCC
:104D3000702069732030302E3020462000000000A3
:104D4000656E00006170706C69636174696F6E2FCD
:104D50006F637465742D73747265616D000000007B
:104D6000546865204C504320457870657269656EC3
:104D700063653B20596F757220576F726C642052C7
:104D800065696D6167696E656400FFFFFD02000083
:104D9000FD02000003000000720077000800000020
:104DA0002054656D702069732030302E30204620ED
:104DB0000000000002070809010003FF0B0A0405B8
:104DC00006FFFFFF00008000C000C004000FFFFFCF
:044DD000FFFFFFFFE3
:04000003000001C533
:00000001FF
